:020000041000EA
:1000000000B5324B212058609868022188439860DF
:10001000D860186158612E4B002199600221596106
:100020000121F02299502B49196001219960352056
:1000300000F044F80222904214D00621196600F024
:1000400034F8196E01211966002018661A6600F04E
:100050002CF8196E196E196E052000F02FF8012189
:100060000842F9D1002199601B49196000215960AB
:100070001A491B48016001219960EB211966A021F2
:10008000196600F012F800219960164914480160C1
:100090000121996001BC002800D000471248134993
:1000A000086003C880F30888084703B5996A0420EC
:1000B0000142FBD001200142F8D103BD02B5186610
:1000C0001866FFF7F2FF186E186E02BD00000240BE
:1000D000000000180000070000035F00212200005C
:1000E000F4000018222000A00001001008ED00E03C
:1000F00000000000000000000000000074B24E7A12
:1001000000200420F7010010C3010010C5010010F9
:10011000C1010010C1010010C1010010C101001097
:10012000C1010010C1010010C1010010C701001081
:10013000C1010010C1010010C9010010CB01001065
:10014000CD010010CD010010CD010010CD01001037
:10015000CD010010CD010010CD010010CD01001027
:10016000CD010010CD010010CD010010CD01001017
:10017000CD010010CD010010CD010010CD01001007
:10018000CD010010CD010010CD010010CD010010F7
:10019000CD010010CD010010CD010010CD010010E7
:1001A000CD010010CD010010CD010010CD010010D7
:1001B000CD010010CD010010CD010010CD010010C7
:1001C00000BE00BE00BE00BE00BE00BEEFF3058054
:1001D000103800BEF2EB88715C1405108414051011
:1001E0003402001090A31AE700201F49086006C8D7
:1001F00081F3088810471D48006800282FD10DA4FE
:100200000ECC002902D000F012F8F9E71849194A7B
:10021000002000E001C19142FCD1174988471749ED
:1002200088471749884700BEFDE701C901C29A42C5
:10023000FBD3704784140510C0000020DC0F0020A1
:10024000A02305100000042000000420A0230510B6
:10025000001004200010042000000000704709482E
:1002600001F0CAFD0047000008ED00E0000000D0EA
:100270001010002020EC002021440110BD080010C7
:10028000494501105756000006005250ABB3605369
:10029000A812051006005250861C0302B812051061
:1002A000060052505422A29DC01205100500525063
:1002B000DE65F468A0230510F8B5C04610B5064CFD
:1002C0002378002B07D1054B002B02D0044800E017
:1002D00000BF0123237010BD181300200000000090
:1002E000E87B0110044B10B5002B03D003490448F0
:1002F00000E000BF10BDC046000000001C1300203D
:10030000E87B0110D0220121F8B50124CE464746F2
:10031000120653684048DB0B0B406340DBB280B5EC
:10032000036050683D4E400D01406140CAB23C49F7
:100330003C4C0A601B0412042000F36032613A490D
:1003400000F09EFF2768394B62681F60384BA06839
:100350001A609846374B1860994615F0FBFE04006A
:100360000D00784215F0F6FE22002B0015F062FF1A
:10037000314A324B15F062FE15F038FF4B46304FD4
:100380003860186815F0E6FE434604000D00186852
:10039000404215F0DFFE22002B0015F04BFF264AED
:1003A000264B15F04BFE15F021FF264B051C18605F
:1003B000386816F021F915F02BFF0022224B15F0BA
:1003C0005CFE15F0DFFE214B04001860281C16F0BF
:1003D00013F915F01DFF00221B4B15F04EFE15F012
:1003E000D1FEAF221A4B74601A4C0021D200186063
:1003F000B060200016F090F9230007CE07C306CEA8
:1004000006C3EE23144A23701368012001331360DE
:10041000C0BCB946B046F8BDC4150020B81F0020C6
:10042000C815002080130020D82400207413002059
:10043000781300207C130020182D4454FB21F93F31
:10044000A8130020A41300200000F0400016002094
:10045000FC15002018E50020A8BE0020F0B5D64607
:100460004F464646026804000123C0B5002A49D021
:100470002C4A2D4D90462D4E2560002B02D033681E
:10048000002B05D10120E0BCBA46B146A846F0BD1C
:10049000D02212061268012A31D0012241460A6098
:1004A000013B3360224B2348190099460EF014FD9E
:1004B000A02281219200362004F0ACFB43680700A3
:1004C0009A4618008122002116F026F980221A4946
:1004D000504616F027F9194B4A4639001868184B50
:1004E00009F02AFA8146380004F0F6FC4B46002B4E
:1004F00012D1144A1368013313600023BCE7124978
:100500000A60CDE709F0ACFA0C4B18600C4B838203
:100510004382054B2360B5E749460C4816F008FBBB
:100520000023A9E7C4BE0020F2040010A8BE0020EA
:1005300090130020DCEB002018E50020B0BE002066
:100540005C11000004160020C8BE0020FC7B0110D6
:10055000F0B5DE4657464E464546E0B5424B83B0C1
:100560001B68002B00D07DE0404B1B68002B1ED188
:1005700000263F4B3F4C99463F4A1B6817002660B8
:10058000002B13DD00223D0053009B189B00FB183D
:1005900028009B68984723680C355A1C4B461B68FB
:1005A00022609A42F0DB2660002BEBDCFEE7012B99
:1005B00006D003B0F0BCBB46B246A946A046F0BD8B
:1005C0002B4B002599462C4B2A4C98462B4B2C4EF6
:1005D0009A462C4F4A4633681268013333602560CF
:1005E000002A00DCFEE7C3463D6002F085FF53466B
:1005F00022681860596053009B189B0043449B6815
:10060000584698473B68012B0BD00C2294464A462B
:100610002368126801332360E3449342E4DB3368C8
:10062000DBE72368184A9B00D25817490092013231
:10063000CA5002F061FF154A23689446DB009C44CF
:1006400000900191634651461A685B6808684968E2
:10065000121A8B410098019980185941634618601D
:100660005960B7E79F46C046CCBE0020D4BE0020EC
:10067000D8BE0020E8240020E0BE0020081300209F
:10068000C0E40020C4BE0020C8E40020681100209F
:10069000F0B5DE4657464E464546E0B5424B83B080
:1006A0001B68002B00D07DE0404B1B68002B1ED147
:1006B00000263F4B3F4C99463F4A1B681700266077
:1006C000002B13DD00223D0053009B189B00FB18FC
:1006D00028009B68984723680C355A1C4B461B68BA
:1006E00022609A42F0DB2660002BEBDCFEE7012B58
:1006F00006D003B0F0BCBB46B246A946A046F0BD4A
:100700002B4B002599462C4B2A4C98462B4B2C4EB4
:100710009A462C4F4A46336812680133336025608D
:10072000002A00DCFEE7C3463D6002F0E5FE5346CA
:1007300022681860596053009B189B0043449B68D3
:10074000584698473B68012B0BD00C2294464A46EA
:100750002368126801332360E3449342E4DB336887
:10076000DBE72368184A9B00D258174900920132F0
:10077000CA5002F0C1FE154A23689446DB009C442F
:1007800000900191634651461A685B6808684968A1
:10079000121A8B41009801998018594163461860DC
:1007A0005960B7E79F46C046D0BE0020D4BE0020A7
:1007B000DCBE0020EC24002058BF002010130020D5
:1007C000C4E40020C8BE0020F0E40020B8110020DE
:1007D000D0231B061B6870B5012B16D016490B6879
:1007E000092B05DD0022154B1A60FFF7B1FE70BD25
:1007F0005A001348D2189200124D84186360A56005
:100800000024013384500B60ECE70F490B68092B7F
:100810000BDC5A000D48D21892000A4D8418636010
:10082000A5600024013384500B600022084B1A603D
:10083000FFF72EFFDBE7C046D8BE0020CCBE00206D
:10084000E0BE00205D040010DCBE002058BF002088
:10085000D0BE002010B52E2009F010F9C122104C96
:10086000104920605200362004F0D4F92068002896
:1008700011D00D4B0D4A1968043108F01BFF0028F8
:1008800003D00B4816F054F910BD00222068094926
:1008900009F0C2F8F8E7084816F04AF9F4E7C0464C
:1008A000F0EB002079050000A0BE00205C110000E4
:1008B000207C0110C10000202C7C011070B59AB082
:1008C00016F042F9D024022001F0D6FC04232406BD
:1008D000A36201220021022001F046FC63685B074D
:1008E00000D472E01021012015F0DEFE041E00D1BC
:1008F0009EE00EF06BFD002800D08AE04F4A504980
:1009000050480EF0CBFC05A94F480EF0E5FA059BC8
:100910004E4AA3604E4B06AE04934E4B23CB23C2EC
:1009200021001B7830001370083104AA00F046FC47
:100930000F2001F0A1FCD02580232D061B020022F0
:100940000121AB620F2001F00FFC152001F094FC97
:10095000802300249B030022AB620121152001F0BB
:1009600003FC3D493D4816F0EFFA0321082001F051
:10097000E3FB0321092001F0DFFB00F03DFC3849D7
:10098000384800F07DFCFFF765FF374B1C60374BA4
:100990001C6016F0FDF9364816F04EFA02F054F9D4
:1009A000344B354A0093012302965B42019402F0D6
:1009B00037FB2B68012B31D0304B1C60FFF7C8FD93
:1009C0000EF044FD00201AB070BDFA20800002F045
:1009D0008DFC0EF0FBFC00281BD10EF051FC2848CA
:1009E00016F004F8274B154A154916480EF09AFCE4
:1009F000002818D1154A144B06AE13CB13C2310090
:100A000014480EF069FA204B3100186803F05EFFBD
:100A10008EE71E4815F0EAFF0120D4E71C4B1C604E
:100A2000FFF736FECCE71B4815F0E0FF0120CAE7D0
:100A3000194815F0DBFF0120C5E7C046040040005F
:100A4000787C0110847C0110907C0110DCEB00208C
:100A5000FFFFFF009C7C0110801A06006807002041
:100A6000D824002080130020A8BE0020A4BE0020AF
:100A7000D107001005030010589EFFFFCCBE0020D8
:100A8000AC7C0110307500009CBE0020607C011021
:100A9000D0BE0020C47C0110447C0110F0B5474654
:100AA000CE4680B56A4C138907001600A544F22B88
:100AB00009D8300004F010FA93239B009D44C0BC79
:100AC000B946B046F0BD892200233000920009A942
:100AD00004F026FBF228ECD924216A46022352189E
:100AE0001370390004220DA815F01CFE9A20002373
:100AF00045AD40000AE0922292009C186C44343CC0
:100B0000FF3C247802341B198342D2DAEA5CE918EC
:100B1000FF2ACED0352AEED18B78012B00D19FE071
:100B2000032BC6D19A20002340000AE092229200B3
:100B30009A186A44343AFF3A127802329B18834278
:100B4000B7DAEA5CE918FF2AB3D0322AEED18A7804
:100B50003B789A42ADD1CA787B789A42A9D10A797A
:100B6000BB789A42A5D14B791C00103CE4B2984660
:100B7000072C9ED81D000F3DEDB2ED007D19062219
:100B8000280010A916F0E0FF00280CD0062228004B
:100B9000304916F0D9FF002800D08AE70622280045
:100BA00010A915F0BFFD02F0A7FC002900D17EE2DC
:100BB000FA220023920015F03FF80300264A013480
:100BC0009446E40063443C191B0CE38037226B46D7
:100BD0009B18424624241A7069463622F0230919CC
:100BE000FF32CA526946313A09190233FF3ACA54F0
:100BF0006B463D3241219B186A4640205218694697
:100C0000091840461B781278097836250690684600
:100C100040190078013D0590684640190078013D73
:100C200004906846401900786D46039021202D19E4
:100C3000285C6D46029020202C19205C43240190F2
:100C4000281900780090054815F072FF84E0C0462E
:100C5000B4FDFFFF247D0110005C2605D87C011047
:100C600008239846B8440622404610A916F06CFFA7
:100C7000041E5FD06F4D06222900404616F064FF27
:100C8000041E00D0D4E0FB896B4A1B041A43914632
:100C900002F032FC002900D1EBE1FA22002392009D
:100CA00014F0CAFF4B46181A00D51AE210239846D2
:100CB000B8440622404610A916F046FF002800D18D
:100CC0007AE2082C00D1BDE03800062210A91830C5
:100CD00016F03AFF002800D1F4E13800062210A9EE
:100CE000203016F031FF002800D1F2E13800062252
:100CF00010A9283016F028FF002800D1EBE13800B9
:100D0000062210A9303016F01FFF002800D1E4E1C0
:100D10003800062210A9383016F016FF002800D13E
:100D2000DDE13800062210A9403016F00DFF002842
:100D300000D196E137226B4624219B186846362263
:100D400010341C70F0234018FF32C2526846343A07
:100D50000233FF3A4118CA5424256946F323362248
:100D60001A2004244919CA54FF300133CC540422F8
:100D70003900684415F0D6FC6946F9230122202089
:100D80004919CA54FF300133CC540422391D684438
:100D900015F0C8FC6946FF23032226204919CA54CE
:100DA000FF300133CC5404223900684415F0BAFCFA
:100DB0000623694606222C204919FF33CA54FF3006
:100DC0000133CC5404223900684415F0ABFC0C23E9
:100DD000684633224019FF33C254184B68464C937F
:100DE000882341195B00B33ACA52A0228921144BCF
:100DF0003620920049005D6803F00CFF041E00D10C
:100E000057E689224068520009A915F08BFC01239E
:100E10005B42B86C0893002D00D124E121000095BD
:100E2000453308AA08F064FD200004F055F840E6B8
:100E3000082428E7247D0110FFFF00000400015171
:100E40000025002006222900404616F07DFE0028DD
:100E500000D1073CFB8AD0481B041843814602F0AE
:100E60004BFB002900D109E1FA220023920014F083
:100E7000E3FE4B46181A00D542E118239846B844C1
:100E80000622404610A916F05FFE002800D119E1A5
:100E9000082C00D021E706222900404616F054FE17
:100EA000002800D1063CFB8BBB481B04184381463D
:100EB00002F022FB002900D1E5E0FA220023920093
:100EC00014F0BAFE4B46181A00D528E120239846A4
:100ED000B8440622404610A916F036FE002800D17C
:100EE000F7E0082C00D001E706222900404616F062
:100EF0002BFE002800D1053CFB8CA74A1B041A439B
:100F0000914602F0F9FA002900D1C1E0FA2200234B
:100F1000920014F091FE4B46181A00D50EE12823DA
:100F20009846B8440622404610A916F00DFE002847
:100F300000D1D0E0082C00D0E1E60622290040468E
:100F400016F002FE002800D1043CFB8D924A1B04DF
:100F50001A43914602F0D0FA002900D19DE0FA220E
:100F60000023920014F068FE4B46181A00D5F4E0F6
:100F700030239846B8440622404610A916F0E4FDF6
:100F8000002800D1A9E0082C00D0C1E606222900E3
:100F9000404616F0D9FD002800D1033CFB8E7E4A66
:100FA0001B041A43914602F0A7FA00297AD0FA22CC
:100FB0000023920014F040FE4B46181A00D5DBE0E7
:100FC00038239846B8440622404610A916F0BCFDC6
:100FD000002800D183E0082C00D0A2E606222900D8
:100FE000404616F0B1FD002800D1023CFB8F6A4854
:100FF0001B041843814602F07FFA00295DD0FA22D3
:101000000023920014F018FE4B46181A00D5C5E0D4
:1010100040239846B8440622404610A916F094FD95
:1010200000281ED0082C00D084E606222900404665
:1010300016F08AFD002800D1013C4623FB5A564D8C
:101040001B041D4302F058FA00293DD0FA22002368
:10105000920014F0F1FD2D1A00D5A6E0082C00D165
:1010600027E5072466E64423210008AA08F064FC6B
:10107000DAE6FA21890014F0A1FD13E6FA218900CD
:1010800014F09CFDF5E6FA21890014F097FD19E7AC
:10109000FA21890014F092FD3DE7FA21890014F04D
:1010A0008DFD61E7FA21890014F088FD84E7FA21BB
:1010B000890014F083FD030080E5FA21890014F013
:1010C0007DFDA1E7022435E6FA21890014F076FDC2
:1010D000C1E703242EE604242CE605242AE6062490
:1010E00028E606220021404615F016FB38000622AD
:1010F00010A9103016F028FD00285DD00024E3E58B
:1011000006220021404615F007FB3800062210A9F0
:10111000183016F019FD0028D4D00124DDE5062290
:101120000021404615F0F8FA3800062210A92030B8
:1011300016F00AFD0028CCD00224D7E506220021B3
:10114000404615F0E9FA3800062210A9283016F0BA
:10115000FBFC0028BFD00324D1E506220021404635
:1011600015F0DAFA3800062210A9303016F0ECFC3F
:101170000028B2D00424CBE506220021404615F019
:10118000CBFA3800062210A9383016F0DDFC002812
:10119000A5D00524C5E5C046FFFF000006220021BA
:1011A000404615F0B9FA0624BBE506220021404668
:1011B00015F0B2FA0724BDE50124BBE50B6810B5B4
:1011C000036013680400436040220021083015F0DA
:1011D000A3FA08F045FCA064002808D022000449C6
:1011E00008F01AFC4322A06C024908F063FA10BD13
:1011F0009D0A00104896011030B56B23002589B078
:101200001C4C02AA1380682120000095693B15F050
:10121000C5FE194B03AA1380682102232000009504
:1012200015F0BCFE1B2304AA138068212000009542
:10123000193B15F0B3FE1C2305AA1380682120007A
:1012400000951A3B15F0AAFE0C4B06AA13806821E4
:1012500002232000009515F0A1FE9C2307AA5B0045
:101260001380373B682120000095FF3B15F096FE68
:1012700009B030BD680700201907000037100000D2
:10128000F0B5D6464F464646C0B586B06A463B23C3
:10129000D3730F224E4F3A3B06008A4600936A44AE
:1012A00068213800994615F079FE002304AC984671
:1012B0002200009368213800063315F0D7FE22780B
:1012C0006378120213431BB29B003360A278E37869
:1012D000120213431BB29B007360227963791202DE
:1012E00013431BB29B00B3606A464323D3734B4640
:1012F0000F2200936A446821380015F04FFE4346E0
:101300002200009368213800063315F0AFFE2278E2
:101310006378120213431BB21E00DB171F00F20E8C
:10132000590111437001801BB941830F9C466546EA
:101330008B002B43820092197B419904900B084348
:1013400096040304320C1A4353461A60A278E378D9
:10135000120213431BB21E00DB171F00F20E5901CD
:1013600011437001801BB941830F9C4665468B0079
:101370002B43820092197B419904900B08439604F9
:101380000304320C1A4353465A60227963791202DD
:1013900013431BB21E00DB171F00F20E590111434D
:1013A0007001801BB941840F8B0023438200921986
:1013B0007B419904900B940408430304220C1A43C4
:1013C00053469A6006B0E0BCBA46B146A846F0BDA6
:1013D0006807002010B507F0EFFF10BD0123F0B53E
:1013E0000B7283B0040008F01BF80500431C0DD1FC
:1013F0001249134B1A685B68009201938A60CB60B4
:10140000236820005B69984703B0F0BD02F074F8D0
:10141000FA2206000F00002328000021920015F098
:10142000D1F836184F41002F03DB04498E60CF609E
:10143000E6E70126034F7642F7E7C0467006002034
:10144000487D0110FFFFFF7F70B5094D04002B7828
:10145000002B08D00123074920000B722368DB69A9
:101460009847012070BD02F0F7FB01232B70F1E7D4
:1014700010EC00206006002010B504000368044949
:101480009B699847236820001B6A0249984710BD52
:101490007006002060060020002070477047C0469C
:1014A00010B502F029F8002905D0FA220023920095
:1014B00014F0C2FB10BDFA21890014F07FFBF9E79C
:1014C000020083680832002B04D107E01A001B6871
:1014D000002B03D09942F9D1002003E00023012022
:1014E00011600B607047C0468368002B08D099429A
:1014F00002D107E0994207D01A001B68002BF9D1EE
:1015000000207047020008320B6801201360F8E7E2
:101510004368021D002B04D107E01A001B68002B52
:1015200003D09942F9D1002003E00023012011608B
:101530000B6070474368002B08D0994202D107E046
:10154000994206D01A001B68002BF9D10020704781
:10155000021D0B6801201360F9E7C046F8B5474645
:10156000CE468368804680B5002B29D008234344AB
:10157000994601F0C1FF43469E6804000D00002E0D
:1015800058D000234F469C46B268F36820002900DB
:10159000801A9941002902DB14001D00BC46370067
:1015A0003668002EF0D16346002B43D019684046C0
:1015B0000A681A604B68984743469B68002BD8D14D
:1015C00043465C68002C31D00025237A002B29D0BB
:1015D000210063682572404698472468002CF4D1A6
:1015E000174B1868596843469E68002E04D112E0D4
:1015F00020002900002E0ED0330002009C68DD6818
:101600000B00121BAB413668002BF1DCF2D1002A33
:10161000EED1002EF0D1434618615961C0BCB946E5
:10162000B046F8BD2468002CCFD1D9E7044B186828
:101630005968F0E743465C68002CC5D1D0E7C04646
:10164000487D0110F0B5C646804600B501F054FF54
:1016500043469B6806000F00002B0AD09968DA68A1
:1016600034003D00641A9541002D10DA1B68002BF0
:10167000F4D143465B68002B03D10AE01B68002BC2
:1016800002D0187A0028F9D080BCB846F0BD0120FD
:10169000FAE70020F8E7C046024B18688007C00F41
:1016A0007047C04600C00640104A114B10B51218D2
:1016B0004B419900900F0843990F504059400D4AF3
:1016C0000D4B14F07FFF03004A01C00E1043CA0EF9
:1016D00058405140094B0A4A14F074FF03004A0075
:1016E000C00F1043CA0F5840514010BD157C4A7FAF
:1016F000B979379EB9E5E41C6D4758BFBB49D09412
:10170000EB113113F0B504684568060023002A0088
:10171000C6468068F16803430A4300B5134304D109
:1017200001F0EAFE03000B43FAD02A06230A6040C8
:10173000270613432A0A3A43070CBC4669404B402C
:10174000984663460F041F43424003045A404346F1
:101750007B4032607360C20E4B011343C90E4001DF
:101760000843B360A10FAB000B43A200A4185D4176
:10177000EB01620E1A43E4016B0E2343F0601E007E
:1017800017005B0FD100F00019438019794180BC2C
:10179000B846F0BDF0B5DE4657464E464546E0B584
:1017A000B84B8DB01B78002B00D1ECE008AB98460D
:1017B000B54BB64C0393B64BB64F04931022049925
:1017C000404614F0AFFFB44B1B78DBB2059301F039
:1017D00093FEFFF769FF089B584043465B680890FB
:1017E000594043465960AD4B9B69DB0400D5C0E0CE
:1017F00012F0C6FEEFF305839B46B9465F46A84B41
:10180000256866689A4628003100002F1AD001F03A
:10181000A7FEEFF3108272B653461B68002BFBD075
:10182000BFF35F8F2368AB420FD0BFF35F8F002100
:101830005346196082F310882568666828003100D5
:10184000002FE4D101F0F0FCE3E76368B342ECD190
:101850000125924B1600D8694F46054001F04CFE19
:101860000A22002380185941002900DA7DE03A68F5
:101870007B6892185B412060616028001C001300A7
:1018800010430093019438607C60BFF35F8F0024A5
:10189000834A146086F310880199FFF705FF4346D9
:1018A0009B68804A58404346DB689446594043460B
:1018B0009860D960039B7C4A1B78DB00634498687E
:1018C00090425ED00021FFF7EFFE089B5840434650
:1018D0005B680890594043465960EFF3108572B633
:1018E0006F4A1368002BFCD0BFF35F8F6A4B059AD9
:1018F0001B78934219D0049940460B6840681A003F
:10190000089B5A40089242464B68434053608B689C
:1019100000934346009A9B685A40CB684146C96889
:1019200000934B4041468A60CB604046FFF7EAFE99
:10193000102206000C000498414614F0F3FE564BAA
:10194000554A1B780133DBB21370BFF35F8F00225F
:10195000534B1A6085F31088300021000DB0F0BCA5
:10196000BB46B246A946A046F0BD01204F494042C1
:101970007DE74F4BDA6BE0231340402B00D039E773
:1019800036E79C609EE74B4B9946186859684A4B6E
:101990009C464A4B9846830E8F011F438601030CD9
:1019A0000D041D4332003B00040412196B41121A4E
:1019B0008B41614601C98C4600210090019100983D
:1019C000019980185941C445E5D14B4618605960CA
:1019D000FFF76AFE08AB9846089B584043465B6891
:1019E00008905940434606A8596000F021F906982E
:1019F0000799FFF759FE43469B6858404346DB680A
:101A0000594043469860D960244B9B69DB0436D526
:101A1000274BDA6BE0231340402B30D0EFF30583E4
:101A20009A4640230024039300231D4F0093019402
:101A3000164C00239B4653462568666828003100F3
:101A4000002B19D001F08CFDEFF3108972B63B68C2
:101A5000002BFCD0BFF35F8F2368AB4230D0BFF3C5
:101A60005F8F5B463B6089F3108853462568666844
:101A700028003100002BE5D101F0D6FBE4E712F09D
:101A80007FFDCBE717EC00200BEC0020601100205D
:101A9000E80F0020F80F00200CEC002000000640AA
:101AA000300100D000000340FFFFFF00FFFFFF7F79
:101AB00000800040E00F0020001C042000200420D3
:101AC0006368B342CBD1009A019B100019008018C3
:101AD0005941484BDA6901231340034300930191B4
:101AE00001F00AFD0A22002380185941002949DB30
:101AF000039B20606160012B3AD1009801993E4F11
:101B000038607960BFF35F8F00233C4D2B6089F311
:101B10001088FFF7C9FD089B584043465B68089052
:101B200059404346596001F0E7FCFFF7BDFD4346CD
:101B30009B6858404346DB68594043469860D960EB
:101B4000EFF3108672B62B68002BFCD0BFF35F8FCB
:101B50002B4B1B78002B19D02A4B03932A4B049351
:101B6000BFF35F8F0022254B1A6086F3108825E6AD
:101B7000BFF35F8F00233B6089F31088039B013B19
:101B8000039356E7012021494042B1E7204BDA6830
:101B90001F2A23D05A691F2A22D0DA691F2A25D08A
:101BA0005B6A1F2B1FD012F0EBFCFF22FF231549AD
:101BB000DB000A70174A03919446052263445A6079
:101BC0004046FFF79FFD104B10221800414604933A
:101BD00014F0A8FD01230A4A1370C1E70023039300
:101BE000039BDAB2E3E71C3B0393F9E70223039379
:101BF000F6E7C04600000640F80F0020300100D094
:101C000017EC00200BEC0020E80F0020FFFFFF7F07
:101C1000000003400800034010B5FFF7BBFD10BDF6
:101C200010B5024800F00CF810BDC046B8E4002022
:101C300010B50822014914F075FD10BDB8E400206C
:101C400030B5002589B004000922002101A80095C3
:101C500014F062FD0922002105A8049514F05CFD32
:101C60004B236A466846137004A90D2215F054FFF1
:101C7000152108222000694414F054FD09B030BD3C
:101C8000EFF3108072B6034A1368002BFCD0BFF349
:101C90005F8F70472C0100D0BFF35F8F0022024B93
:101CA0001A6080F3108870472C0100D070B5EFF3F4
:101CB000108C72B60D4D2B68002BFCD0BFF35F8FDC
:101CC0000724CB08C618C05C01230C40A3401C00AD
:101CD0000440034207D103433370BFF35F8F2C608E
:101CE0008CF3108870BD100012F032FC2C0100D073
:101CF000F8B54746CE46884680B5EFF3108C72B6ED
:101D0000214D2C68002CFCD0BFF35F8F9A422CD859
:101D1000D4080727055D061901241740BC402C4252
:101D20001FD007210127894609E0D408055D06195F
:101D30004C4639001440A1400C00294211D0013218
:101D40009342F2D201204042BFF35F8F00220E4B3C
:101D50001A608CF3108800280FDBC0BCB946B0466F
:101D6000F8BD2C4310003470EEE7BFF35F8F002303
:101D70002B608CF31088012040424346002BECD0AE
:101D8000089812F0E5FBC0462C0100D030B5EFF307
:101D9000108C72B60A4C2368002BFCD0BFF35F8F07
:101DA00007230122CD0819408A40435D93434355E0
:101DB000BFF35F8F002323608CF3108830BDC046D3
:101DC0002C0100D00021044B044ABFF35F8F02C3F3
:101DD0009342FAD17047C046000100D0800100D084
:101DE000044A1078431CDBB2172B00D91023137060
:101DF0007047C04688060020142310B501001888DB
:101E000004331B88984710BD162310B501001888AD
:101E100002331B88984710BDF8B54746CE4680B5BB
:101E20000F1E19D0142399460433040000250126FF
:101E300098464B461888434621681B88984701C43A
:101E4000431E9841013540420640AF42F1D1300077
:101E5000C0BCB946B046F8BD0126F8E730B50C2045
:101E600083B001F0DDFEFFF717FC00280ED0994B80
:101E7000994A1A605A609A60DA601A615A619A61E6
:101E8000DA611A62954A5A6203B030BD944CA06779
:101E900001F0CEFE0122934B1A60636C012BFCD142
:101EA0000322914B1A608E4A936B012BFCD10133B4
:101EB00001218E4A8E480093043301F061FE052310
:101EC0008C4A009301218C4801F05AFE8B4B5A68D2
:101ED000FF2A02D8802252005A6080227D4C824B19
:101EE00021691201854D1A60002907D0606913F03D
:101EF00065FE431C5800C0180338FDD2E0217F4B1B
:101F000002201A681140802252012A431160196888
:101F1000484003210140116004219A681142FCD01D
:101F20008022802192012A430901116080225200FF
:101F30005A60734B2361734B5968FF2900D85A606C
:101F40000321684A6F4B116002399A681142FCD034
:101F5000E0201A681040802252011A43106018686D
:101F60004840032101400220116066498A681042FE
:101F7000FCD0802292011343802212011A60802239
:101F8000614B52004A606361604B5968FF2900D879
:101F90005A6080225E4BE16912015C4D1A60002993
:101FA00007D0606913F00AFE431C5800C0180338BC
:101FB000FDD2E02255490B681A4080235B012B4378
:101FC0001A60802380229B012B4312011A60802219
:101FD000414B52004A60E3614E4B5968FF2900D8DB
:101FE0005A6080224C4B216A12014A4D1A60002926
:101FF00007D0606913F0E2FD431C5800C018033895
:10200000FDD2E02243490B681A4080235B012B4339
:102010001A60802380229B012B4312011A608023C7
:1020200080225B004B602C4BD20223623B4B5968F1
:10203000914200D25A608022394B616A1201374DB9
:102040001A60002907D0606913F0B8FD431C5800DE
:10205000C0180338FDD2E02230490B681A408023B3
:102060005B012B431A60802380229B012B431201CA
:102070001A608023DB024B60184B6362294B5A685D
:10208000FF2A02D8802252005A608022264BA16982
:102090001201244D1A60002907D0606913F08EFDEB
:1020A000431C5800C0180338FDD2E0221D490B68BC
:1020B0001A4080235B012B431A60802380229B01FE
:1020C0002B4312011A6080235B004B600E4BA3610F
:1020D000DAE6C046D4150020006CDC021BB7000015
:1020E000008000403CB0004030B00040002F6859F4
:1020F00000800240008C864700C0024030800040D3
:10210000001BB7003C8000404059730754800040DA
:1021100054B000406080004060B000406C800040DF
:102120006CB000404880004048B00040014B800047
:10213000C0587047D4150020094A830094464022B5
:10214000634410B51C68C0006240C0241440802263
:10215000520113431C60034B9C466044416010BD18
:1021600004C00140004001400A4B80009C4604230B
:102170006044002901D00C230821002A00D10B0063
:10218000026853400C221A4080235B01184302600E
:102190007047C04604C00140084B80009C46604424
:1021A000002905D080239B01184302230360704758
:1021B000C0239B01184302230360F8E704C00140D9
:1021C000D0231B061B6830B50500581E83410F48FD
:1021D0005C42844607203023284023408000EC08DE
:1021E000814020000A4D3C3063448000A4004151EE
:1021F0001B19002A04D0802292011343196030BDBC
:10220000C022920113431960F9E7C0460041014022
:1022100000400140D023F0B5C64604001B06984696
:102220001B680C4F9B00F8580D00160000B50442C7
:1022300009D1044332002900FC500D2000F092F82F
:1022400080BCB846F0BD12F09BF943461B689B006A
:10225000F858EEE72CDF002010B504000D2000F048
:1022600075F9D0231B061B6802499B005A58A243EC
:102270005A5010BD2CDF00200123D02283401206CB
:1022800093629361094A830094464022634419682B
:10229000C0004A40C02111408022520113431960FE
:1022A000034B9C46052360444360704704C00140D3
:1022B0000040014001238340002904D0034A1360F9
:1022C000034A13607047034A1360FBE780E200E0B3
:1022D00000E100E080E100E001228240034B1B6846
:1022E00013405A1E9341D8B27047C04600E100E047
:1022F00001238340014A13607047C04600E200E0BA
:10230000024B10309B688000C058704700ED00E021
:1023100070B50D00EFF3108672B60F4A1368002BEC
:10232000FCD0BFF35F8F0D4B10309B6884001B59AE
:102330000B4A934203D09D4201D012F021F9074B82
:102340009B681D51BFF35F8FBFF35F8F0022024B6D
:102350001A6086F3108870BD240100D000ED00E003
:10236000CD010010F0B557464E46DE464546E0B575
:1023700085B0060002911700EFF3108B72B6674A22
:102380001368002BFCD0BFF35F8F0025644B5D57B3
:102390009A46002D00DAA4E06B00624C03935B19AF
:1023A0009B009846A146C1444B4652469B79103645
:1023B00013705D4BB2009B68019299580B1B2F2B39
:1023C00034D95A4B994200D0A4E0039B584A9C460A
:1023D000584B6544AD006353434602336519E41816
:1023E000554B0121043B1B1B1B055B0D13436B80ED
:1023F000524BEF71AB80FF23AB71029BAB604B463E
:102400000B431900484B019A9B689950BFF35F8FAB
:10241000BFF35F8F0022414B1A608BF3108805B029
:10242000F0BCBB46B246A946A046F0BD01200A005A
:102430008243D379BB422FD845464E4613004049CC
:102440001B1B5B415943090D3A4B63533A4B023511
:102450006519043B5B1B1B05354D5B0D2B437380DE
:102460000426B446E0444444131F1B1B4C46A17190
:1024700002991B05A16049465B0D2B43A380314B9C
:10248000E77101431360BDE75800C01880002018B1
:10249000C679BE422BD902000623D356002BF3DAAD
:1024A000101D82462848804604267642B446E14400
:1024B00050464E46361A3005400D824656461C4858
:1024C000957106439680039A944665441D4AAD0073
:1024D000641922604246A371029BA280E771A36047
:1024E00090E712F04DF8002553465D5754E7101D54
:1024F000824690884005001584464046D44466468E
:1025000004302018301AE0260005400D3602304312
:102510008046C9E712F034F857E7C046240100D0DE
:1025200013EC00208C06002000ED00E0CD0100102F
:1025300000E0FFFF00A1FFFFBC06002001BDFFFF80
:10254000AAAA00000148804701BD0000F0B5DE46A0
:1025500057464E464546E0B50C0083B0EFF3108970
:1025600072B6584A1368002BFCD0BFF35F8F564BEE
:102570009A68030010339F00D559544A90469542FB
:1025800032D0A54243D0524EAA1B2F2A2CD801226A
:102590008240924651464F4A12681140019151467D
:1025A0004D4A1160BFF35F8FEFF305829346002A17
:1025B00033D101232A009A4393689C4208D177E0E3
:1025C0004B005B189B00F3189968A1422AD01A00AF
:1025D000062151560029F3DA019B002B19D05246EF
:1025E0003E4B1A603B4B1A60374B9B68DD51BFF383
:1025F0005F8FBFF35F8F0022324B1A6089F3108820
:1026000003B0F0BCBB46B246A946A046F0BD1500DB
:10261000EAE75246304B1A60E6E79342C9D011F020
:10262000AFFFC6E706215956002921DB4A005018A2
:10263000800034188046A0689860E079D871062040
:1026400020569871002824DBA488F01A640524150C
:1026500044440019E0240005400D240220439880E2
:1026600052181F4B9200B6181A781970B271B3E75E
:10267000594600290FD1FF3191711A4991801849AB
:102680000A789A71184A9B1B5B415A43120D0A70D3
:10269000A2E71648E3E7164A1649D21A083A50024A
:1026A000400D01439980144952080A43DA8093E7A8
:1026B0000621515613000029B8DA5A46002AEAD1F9
:1026C0004546DCE7240100D000ED00E0CD0100101C
:1026D0008C06002000E100E080E100E080E200E004
:1026E00013EC002001BDFFFFAAAA000001BD0000FD
:1026F000C606002000F0FFFF00F8FFFF032310B51F
:102700000400074A18409446C0009C43FC338340B1
:102710006444226881409A4313000B43236010BD38
:1027200000E400E070B5EFF3058101240443EFF30A
:10273000108C72B6214A1368002BFCD0BFF35F8F58
:102740001F4B05001F4AED1A6D416A43120D1E4DC5
:102750008900AE6852B27658A6421CD0062159565E
:1027600091421CD012215956914222D01E21595615
:10277000914220D02A2159560324914210D0134B64
:1027800019781A708171BFF35F8F00220B4B1A60AA
:102790008CF3108870BDAB680D4C5C50EFE70024E3
:1027A0006100091989005B18FF2199710949998015
:1027B000E5E70124F4E70224F2E7C046240100D053
:1027C0008C060020AAAA000000ED00E013EC002017
:1027D000CD01001001BDFFFF054B064A1360064AFC
:1027E000136053609360D3601361536193617047CA
:1027F0008080808000E400E004E400E01F2110B548
:10280000091A0248FFF7C2FA10BDC0461CEC0020AE
:1028100000B5074B83B00100009300220523054853
:10282000FFF766FA002801DB1F23181A03B000BD6A
:102830002C7D01101CEC002070B504000E0015006A
:10284000FFF7CEFA0100200000F006F8A680E58030
:10285000BFF35F8F70BDC046024B9C466144890048
:10286000016070474000003410B50400FFF7B8FA6B
:1028700001002000FFF7F0FFFF232371BFF35F8FFC
:1028800010BDC04610B50400FFF7AAFA01002000F1
:10289000FFF7E2FFFF23A380BFF35F8F10BDC046A9
:1028A00083680B4810B584466144624409011201F3
:1028B0009A18591854684B6801209C4201D802D0DC
:1028C0000020C0B210BD12680B689A42F9D8F7E731
:1028D000FFFFFF0F10B508000B690C009847002898
:1028E00002D02068616810BDE06000210020FAE796
:1028F0000A4B1968EFF3108072B60A68002AFCD000
:10290000BFF35F8F1B68BFF35F8F00221A6080F3F5
:10291000108840BF002000217047C04698EB00207F
:10292000F8B557464E464546DE46E0B599460CABEF
:102930001C780DAB1B78060090469A460768002C61
:1029400011D1BC7B002C42D065003B682D19033DA2
:1029500059194B78BB73002B00D1FB7300238B708C
:102960004B700B7004E065003B682D19033D59194D
:10297000B2682A4B94464246E3181B0163441A602E
:102980004A465A600A9A9A600B9ADA6000238B7062
:102990004B700B707B7B9B46002B2BD02200594643
:1029A000B8687B6898473A68002816D05B46584656
:1029B0005B005B445519033BA870D118D35C002B16
:1029C00000D06B705B460C707B73A34513D0F0BCDA
:1029D000BB46B246A946A046F8BD5B465B005B44D9
:1029E000033BD3189C705119525D002A00D05A70D5
:1029F0005B460B707C7342464B46307D00F006FE12
:102A0000051E06D05346002B03D12100306801F08B
:102A100079F80E9B002BDAD01D70D8E7FFFFFF0F6F
:102A2000F0B5DE4657464E4645460023E0B58BB02E
:102A30000893674B8200D45800239B46099000F00E
:102A40005BFD626806000F00EFF3108572B6136835
:102A5000002BFCD0BFF35F8F23689C465B7B9946BD
:102A6000002B00D169E0A2685A4B90464B441B01F1
:102A7000984443461A685B6810001900801BB941EE
:102A8000002900DC63E0099800F0C0FD002300226B
:102A9000984600230692079300239A466368BFF383
:102AA0005F8F5A461A6085F310885346002B08D171
:102AB0000028C4D10BB0F0BCBB46B246A946A04624
:102AC000F0BD089B414618024B461843D047626848
:102AD00006000F00EFF3108572B61368002BFCD0D0
:102AE000BFF35F8F002F50DB33003B4302D02369DD
:102AF000002B61D12368D97B002907D04A005218E6
:102B000019688C4649466244033A51709A7B002A00
:102B100001D14A469A734A46DA734B46E168013B53
:102B2000CA5C0132CA545B4623616368BFF35F8F9E
:102B30005A461A6085F3108881E7002300229846E0
:102B4000002306920793002300209A46A6E7002957
:102B500002D1002800D096E70021604600F050FF27
:102B600043461A685B680692079343469B689A46F9
:102B70004346DB689846E3684B44013B1B78089367
:102B80001B0203432361002088E72369002BB1D097
:102B9000069A079B921BBB41002B15DB59460491FB
:102BA000012103914946029141460191514620007D
:102BB0000091FFF7B5FEB6E700F09EFC32003B0047
:102BC00012184B41002BE9DA0122034B5242E5E790
:102BD000B4BE0020FFFFFF0FFFFFFF7F10B5144CB6
:102BE0006368002B04D00A211248FFF735FE10BDA0
:102BF0002300114A1021206800F012FE032000F08B
:102C000057FC032000F06CFD03200C4900F0B8FCD9
:102C1000FFF7E6F80A4B9C4603232375D0231B06D7
:102C20001B6860446375074B80006060DC60DAE716
:102C3000D406002098EB0020A1280010212A0010C3
:102C400040000034B4BE002000487047D406002085
:102C500070B50500182013F009FD164904000200A4
:102C6000280000F0ADFD10212060280013F01CFDAD
:102C70000121A060280013F017FDE060012000F0A2
:102C80002BFC050000F02CFD28000B4900F078FC1F
:102C9000FFF7A6F8094B25759C46D0231B061B6839
:102CA00060446375064BAD0080006060EC5020000E
:102CB00070BDC046A1280010212A00104000003439
:102CC000B4BE00200E4B10B50400984217D000216E
:102CD000037D0C4A9B009950006800F0BFFD002165
:102CE000207D00F04DFC207D00F0EEFBE06813F04D
:102CF000FBFCA06813F0F8FC200013F0F5FC10BDFD
:102D0000D4060020B4BE0020F0B54E464546DE464F
:102D10005746E0B585B0019310AB1B7806000393CE
:102D200000239946984600927268EFF3108B72B6B2
:102D30001368002BFCD0BFF35F8F3568AC7B002C91
:102D40003DD067002B683F19033FDB195A78AA73FF
:102D5000002A00D1EA73B168474A8C46009801996D
:102D6000A21812016244106051600E9991600F998F
:102D7000D16042469A705A701A706B7B9A46002B4B
:102D800067D022001900A8686B6898472A68002855
:102D900052D0534650465B005344D719033BB8709A
:102DA000D118D35C002B00D07B7053460C706B7332
:102DB00054454FD0F3681B19013B187800E0002000
:102DC0007368BFF35F8F42461A608BF31088002C44
:102DD0004FD04B46002B08D10002204305B0F0BC79
:102DE000BB46B246A946A046F0BD039B002B3ED091
:102DF0000E9B00200F999847030004000D000B4321
:102E000035D000290ADA009A019B121BAB410092CF
:102E10000193002B0ADB039B994685E700F06CFBCE
:102E200024184D4100940195002DF4DA0123134C30
:102E30005B4200930194EEE753465B005344033B2F
:102E4000D3189C70D119D25D002A00D05A70534615
:102E50000B706C73307D009A019B00F0D7FB8146AC
:102E60000028A7D02100306800F04CFEA2E7002027
:102E7000B4E701204042B1E7FFFFFF0FFFFFFF7FF4
:102E8000F0B557464546DE464E46E0B5040017000D
:102E900083B098464268EFF3108A72B61368002B2D
:102EA000FCD0BFF35F8F2668B57B002D3FD06B0051
:102EB0005B19033B9C463268019362445378AB46EE
:102EC000B373002B00D1F373A168354B8C46414698
:102ED000EB181B01634459600C991F6099600D99B0
:102EE000D9600023937053701370737B9946002B45
:102EF00048D02A001900B0687368984732680028E3
:102F000032D04B4648465B004B44033BD1188C46BD
:102F1000019951188870D35C002B00D04B70634628
:102F20001D704B46002073734D4531D12BE00023BB
:102F300000269B4600206368BFF35F8F00221A6063
:102F40008AF31088002D28D0002809D15B46300272
:102F5000184303B0F0BCBB46B246A946A046F0BD3C
:102F6000207D00F0DBFBF1E74B465B004B44033B6D
:102F70000198D3189D701118125C002A00D05A7065
:102F80004B460B7075733A004346207D00F03EFBC4
:102F9000E3685B19013B1E78CDE701204042D8E78A
:102FA000FFFFFF0F70B50400002933D04268EFF334
:102FB000108572B61368002BFCD0BFF35F8F2068BA
:102FC000CEB2437BB34216D0FF230B405A00D31836
:102FD000026894466344033B9B78002B0BD1226923
:102FE000914219D000206368BFF35F8F00221A60FE
:102FF00085F3108870BDFF230A0A0B40E168D2B246
:103000008C466344013B19789142EBD1310000F0CA
:1030100079FDE8E70020EDE72361E3E7407D7047B5
:10302000F0B54E464546DE465746E0B585B01099A8
:10303000804689461100194300D1D8E0D817060010
:103040005640340006005E4001003500241A8D41D0
:10305000494640460A6088600F9A0E984B600861A6
:103060004A6100F049FA0019694100900191002974
:1030700000DACAE0002300259A4643465A68EFF377
:10308000108B72B61368002BFCD0BFF35F8F4346E2
:103090001E68B47B002C00D189E063001B19033B40
:1030A0001A00944603933368029463445A78B273C7
:1030B000002A00D1F27341468968584A8C4600982C
:1030C0000199A21812016244106051605449916044
:1030D0004946D16052469A705A701A70777B002F19
:1030E00000D174E022003900B068736898473268F4
:1030F000002861D003997B00DB195118033B8F70C6
:10310000D018D35C002B00D079E0047077732E00C8
:10311000BC425DD04346DB681B19013B1B7842462D
:103120005268BFF35F8F514611608BF31088002CFB
:1031300067D0002E0DD1029A1B02134301364A4676
:103140003000D36005B0F0BCBB46B246A946A046ED
:10315000F0BD4846036998470500031E01D10023CE
:10316000EDE74A461668576832003A4353D0002FBD
:103170000EDA009B019C9B1BBC4100930194002C28
:1031800000DB7AE70123274C5B420093019474E74C
:1031900000F0B2F936184F4100960197002F00DB7E
:1031A0006BE701231F4C5B420093019465E700220B
:1031B0002E0000230292B2E77B00DB19033B039849
:1031C000D3189C701118125C002A15D10F707473FB
:1031D0004346187D009A019B00F018FA061E00D1A4
:1031E00098E743462100186800F08CFC92E7012420
:1031F0000025012200232BE75A700F70E7E74B7080
:1032000083E7012300265B4299E70123054C5B42DB
:10321000009301942EE71E00002390E7FFFFFF0FAD
:10322000D5280010FFFFFF7FF0B504000D00062633
:103230007642F717C64636196F4100B584B08F4203
:1032400014D811D000F058F932003B00121A8B410B
:10325000002B15DC002B3ED02000290000F080F967
:1032600004B080BCB846F0BD8642EBD900260027EA
:1032700000F042F932003B00121A8B41002BE9DDCD
:10328000002302930193154B3200009314483B0036
:10329000FFF73AFD0028DFDB00239846BC46114AC1
:1032A000114F7B6A9C4504D8B96A8E42D4D99C459B
:1032B000D2D11168EFF3108072B60B68002BFCD0EE
:1032C000BFF35F8F1368BFF35F8F4146196080F3D0
:1032D000108820BFE5E7002ABED0D1E7F128001012
:1032E000D406002098EB00200040054070B5060091
:1032F00000F002F9FA2204000D0000233000002142
:10330000920013F05FF900196941002902DBFFF711
:103310008BFF70BD012001494042F8E7FFFFFF7FAE
:10332000F0B5EFF30583CE46474680B505000C00A7
:1033300085B0002B12D02C4A0020536A9C4203D83F
:10334000926A0130AA4204D305B0C0BCB946B04667
:10335000F0BDE01A421E9041C0B2F5E7234E029341
:103360000193234B0200009330000B00FFF7CCFCCD
:10337000031EE0DD20BF7168EFF3108772B60A68A4
:10338000002AFCD0BFF35F8FDAB294463068427BEC
:1033900062451DD0FF221A405100894601689144C0
:1033A00088464946414403398978002913D0F16899
:1033B0001B0A88464244013A1278DBB29A420FD087
:1033C0007368BFF35F8F00221A6087F31088B2E73B
:1033D000FF221A40EBE732699342F1D13161EFE706
:1033E000614600F08FFBEBE700400540D40600206B
:1033F000F1280010F0B5EFF30582D6464F46464659
:103400001000C0B51038EFF3108872B6214C236855
:10341000002BFCD0BFF35F8F0123190081401E4DAC
:103420001F006963AA461D4D29601D4D2E78AC46CC
:103430003500C5402F402B4209D1BFF35F8F276075
:1034400088F31088E0BCBA46B146A846F0BD5346A2
:10345000144D5F6A83005D59AF420ED3124A8E430A
:103460009B5862461670BFF35F8F0022226088F37C
:103470001088002BE6D09847E4E70C4B92009C465E
:10348000624413681360BFF35F8F0023236088F3E7
:103490001088D7E7280100D0004005403C70054067
:1034A0001BEC00209CEB002094130020D03F054033
:1034B00010B50100024A0348FEF7F8FB10BDC046F4
:1034C000507D01100DEC002010B501000148FEF701
:1034D0005DFC10BD0DEC002000B5054B83B0010074
:1034E0000093002203230348FEF702FC03B000BD53
:1034F000747D01100DEC0020034B596A0A00986A94
:10350000596A8A42FAD170470040054070B50400FC
:103510000D00124A536A1900966A536A8B42FAD117
:103520003000190024184D41AB4211D80ED02B00A9
:103530000A494A6A9A42FCD307D1084A02E0516A12
:10354000994202D1916AA142F9D370BDA642EED947
:10355000012301246442E5175B42E9E7004005408E
:10356000064A536A9942FCD807D1044B02E05A6AD2
:10357000914202D19A6A8242F9D3704700400540D5
:1035800070B504000D00EFF3108672B61A4A136886
:10359000002BFCD0BFF35F8F002D1BD02000FEF767
:1035A000AFFE164981420AD02000FEF7B1FE01218C
:1035B0002000FEF77FFE0123A340114A1360114B48
:1035C000A400E550BFF35F8F00220B4B1A6086F317
:1035D000108870BD0B4BA200D5500122A2400A49B1
:1035E00020000B7893430B700449FEF7AFFF0021D6
:1035F0002000FEF75FFEE5E7280100D0F53300105C
:1036000038600540941300201BEC0020F0B54F46B5
:10361000D6464646C0B507002C4C616A0D00A66A26
:10362000616AA942FAD18B4208D805D00120E0BCDA
:10363000BA46B146A846F0BDB242F7D9EFF3108AB8
:1036400072B6234801680029FCD0BFF35F8F0125C3
:10365000BD4020491D4C8846097889462943C9B296
:103660008C46414660460870391D1B4889006563D9
:103670000A51B9000B50216A0020294219D0616A11
:103680000800A66A616A8142FAD18B4219D801D139
:10369000B24216D8CC4516D00C4B1F201D625D637C
:1036A00001230740BB400D4A1E38136043464A467B
:1036B0001A70BFF35F8F0022054B1A608AF31088DF
:1036C000B5E70020F5E70120F3E7C04600400540DC
:1036D000280100D01BEC00209CEB002080E200E0E1
:1036E000EFF3108C72B60A490B68002BFCD0BFF3C5
:1036F0005F8F01238340074A0748136202789A4389
:103700000270BFF35F8F00230B608CF3108870474B
:10371000280100D0004005401BEC0020EFF3108C86
:1037200072B60A490B68002BFCD0BFF35F8F0123F0
:103730008340074802781A430270BFF35F8F00226C
:103740000A608CF31088034A13607047280100D088
:103750001BEC00203C60054070B50500140016000D
:10376000002915D00C00002A12D080686B68984799
:10377000296800280ED073009B196200033B1219C0
:10378000CB18033A9C7088188A5C002A15D1067001
:10379000200070BD63001B197200033B9219CB1807
:1037A000033A9E7088188A5C002A02D104703400A3
:1037B000EEE75A7004703400EAE75A700670E7E7E3
:1037C000F0B5C6460600884600B510210120170056
:1037D00012F06AFF03210500300012F065FF434636
:1037E0006B600023F4B26B73013328602C73AF60FD
:1037F000AB73EC73012C06D9421C0133DBB213709E
:1038000003329C42F9D1FF231E4073009E1900230E
:10381000801903384370280080BCB846F0BDC0460C
:1038200030B583600023CCB243730133047342602C
:103830008373C4730D000068012C06D9421C013348
:10384000DBB2137003329C42F9D1FF2129404B00B7
:103850005918002340180338437030BD10B50400D8
:10386000006812F041FF200012F03EFF10BDC0467C
:10387000F8B5CE46474606000C0080B5002907D0B3
:103880004D0003686D18033D5A195778002F04D175
:103890002000C0BCB946B046F8BD7900C91903394B
:1038A000884643445978894600215970517073689D
:1038B0003A002100806898473368002814D04246B7
:1038C0009A18947059195B5D002B00D053700F70DB
:1038D000270049463000FFF7CBFF390002003000D7
:1038E000FFF73AFF0400D3E7424641465D19AF7047
:1038F0009A185B5C002B00D06B701470E9E7C0462F
:10390000F0B557464546DE464E46E0B50D006B0025
:1039100001685B19DF1E0400C85D83B00192CA19FB
:10392000002850D043001B18033BCB185E78B446E8
:10393000002E1AD1019E002E42D0E67B002E04D02C
:1039400073009B19CB18033B5D70A37B002B00D148
:10395000A573E57300282FD10023537003B0F0BC8A
:10396000BB46B246A946A046F0BD72006244033A87
:1039700089184A78904600224A7091465A70010090
:1039800032002000FFF7E8FE43468246002B07D0B6
:103990005B0021684344033BCB185A78002A16D1B8
:1039A000424651462000FFF7D7FE2168019BCA1905
:1039B000002BC2D10028CFD043001B18033BCB18EB
:1039C00000219970C8E7019B002BB6D1C4E75000D5
:1039D000801803380918487883464846487058705C
:1039E00041462000FFF7B8FE594680462000FFF709
:1039F0003FFF414602002000FFF7AEFE8046CFE7C2
:103A0000F0B557464546DE464E46E0B583B00191D7
:103A1000457B04006B0000685B19DF1EC15DC219A5
:103A2000002952D04B005B18033BC3185E78B446A4
:103A3000002E1CD1019E002E44D0E67B002E04D027
:103A400073009B19C318033B5D70A37B002B00D14F
:103A5000A573E573002931D10023280053706173E9
:103A600003B0F0BCBB46B246A946A046F0BD72000A
:103A70006244033A80184278904600224270914690
:103A80005A7020003200FFF767FE43468246002B43
:103A900007D05B0021684344033BCB185A78002AC7
:103AA00017D1424651462000FFF756FE019B010008
:103AB0002068C219002BC0D10029CDD04B005B1863
:103AC000033BC31800209870C6E7019B002BB4D1BC
:103AD000C2E75000801803380918487883464846E2
:103AE0004870587041462000FFF736FE5946804620
:103AF0002000FFF7BDFE414602002000FFF72CFE2C
:103B00008046CEE770B5040000292CD0437B8B4261
:103B10002ED0056848004018033828188278002AFB
:103B200021D053009B18033BEA5CEE188A4202D175
:103B30001BE0002A08D053009B18033BEB185A786F
:103B40008A42F6D142785A70002301228370437072
:103B50002000FFF7D5FE617B02002000FFF7FCFD8F
:103B60006073012000E0002070BD43783370EBE704
:103B700001221900FFF7C4FE60730120F4E7C0467C
:103B8000F8B5040021481D0017000E0012F016F8C9
:103B90000100380012F012F8069B29041B03194398
:103BA0002368002B20DB1A4B1A4DE21853425A416E
:103BB00080235B019C461203174B62441A60174B2B
:103BC0001A601700AB689F43FBD1C022231D9201EE
:103BD0001A4321232660A06013602368002BFCDABF
:103BE0000823E1601360F8BD3F2322681340B3420D
:103BF000D9D1A3681B051B0D8342D4D1EE22E36803
:103C0000D20213408B42CED1EDE7C046001BB70075
:103C10000040FDBF00C0004000E0004000F0004058
:103C20008023024A9B000343D36270470080054013
:103C3000AA23064A1B0113602F230549D360054BB5
:103C400019605368002BFCDA7047C0460040024000
:103C500000B0FA000060024010B501F0F3FB00F084
:103C60001FFB00F0E3FC00F08DFD05F0EDFB01F023
:103C700079FC00F057F905F057FB10BD40BA80B24F
:103C80007047C04600BA7047F8B54746CE4680B583
:103C9000070104003818000110308146404D414EA4
:103CA0002B688846B144002B02D02A7AA24258D011
:103CB000EB68002B02D02A7DA2424BD0AB69002BCF
:103CC00003D02022AA5CA2423DD06B6A002B03D015
:103CD0002C22AA5CA2422FD03B191B01F318DB7BDC
:103CE000002C04D0B27A022A41D0012C06D08D22B9
:103CF0005200B25C022A43D0022C05D02A4AB25CA0
:103D0000022A43D0032C03D0284AB25C022A42D0B4
:103D1000032B0DD8264D9B00585905F083FE002239
:103D20003C1924013619F37B9B005A510423F37389
:103D3000C0BCB946B046F8BD41464846AA6A984755
:103D400000236B62C8E741464846EA69984700236A
:103D5000AB61BAE7414648462A6998470023EB60C1
:103D6000ACE748466A68984700232B60A0E7F27BDF
:103D70009A42BAD104233C1924013619F373D7E7C8
:103D80002022FF32B25C9A42B6D1F3E7094AB25C14
:103D90009A42B7D1EEE7084AB25C9A42B8D1E9E755
:103DA000542000208C2000202A0200003A0300004A
:103DB000442000202F0200003F030000F0B5DE4643
:103DC0004E46574645468346E0B5030187B04F4A05
:103DD00001935B441B01D618F27A012A00D992E0C4
:103DE0004B4992008C58002C00D17FE010331D000D
:103DF000464B9C466544280013F0E6FCA022123096
:103E000081B29200362000F005FF8146002866D07E
:103E100003AC0C220021200012F07EFC3089FFF759
:103E20002DFF01232080A3700C22FF332100484680
:103E3000A38001F0ADF9374B0C269A464F46013D61
:103E40006B1C98466B78002445462E2B06D156E015
:103E50006B7801340135E4B22E2B01D0002BF7D161
:103E60004346EB1A9BB299462300F318534542DCB4
:103E700022003100380001F03FFA731C4A469BB221
:103E800034194146380001F0BFF9A3B22A785E1C0C
:103E9000B6B2002AD4D11C003100380001F02CFA4F
:103EA0001D4B02340422029302A9A3B2380001F090
:103EB000ABF9164A019B944615495B441B016344C8
:103EC0008C46DA7ADB7B15499B0092005858624495
:103ED0003523390005F030FD380000F0FDFF07B054
:103EE000F0BCBB46B246A946A046F0BD0021FFF794
:103EF000CBFEB472F3E7380000F0EEFFEFE70022EC
:103F000000239146B1E7064810F022FB8C200020E8
:103F100084200020FEFF000000010001442000205A
:103F2000887D01107047C04682B0012801D902B0D7
:103F300070478000002903D00A68044BC250F6E79E
:103F4000034A024B12680192C250F0E7842000201D
:103F500048960110F0B546464F46D646464BC0B58A
:103F6000464E8D273400002598467F00A37A022B09
:103F700035D02CD8002B1FD0414B9946414B9A4647
:103F8000FDF74AFEB37A80B2022B40D0F35D022BDC
:103F900043D04B46F35C022B48D05346F35C022BD4
:103FA0004DD002230122A37200232081E372280056
:103FB00022736373FFF702FF01351134EDB2FF3452
:103FC000042DD3D1E0BCBA46B146A846F0BD032BC0
:103FD0004ED12368002B13D10023A372ECE7237B7F
:103FE000013BDBB22373002BE6D1637B0133DBB2F1
:103FF0006373042B29D023732800FFF7DFFEDBE770
:10400000013B2360002BD7D10023A372D4E733896F
:104010008342B5D0F35D022BBBD11733FF33F35A84
:104020008342ADD04B46F35C022BB6D18A239B0072
:10403000F35A8342A4D05346F35C022BB1D1CE2372
:104040009B00F35A8342ACD19AE7E37A002B08D164
:1040500042465268002A04D001226373E27222733E
:10406000CAE700212800FFF70FFE0023A372A3E791
:10407000054810F06DFAC046842000208C200020F6
:104080002A0200003A030000BC7D0110F0B583B0A5
:104090006B469C1D0023238001331E0006401842FE
:1040A00005D0002903DD0378013963700130032254
:1040B00013000340104205D00023012938DD038896
:1040C0000239023007294BDD083907220F009743D8
:1040D000020005000832BF182A689A189A429B41CC
:1040E0005B42D2186B680835D31893429241524212
:1040F0009B18AF42F0D1CA08551CD200ED00891AB6
:104100001A044019120C1B0C9B18012910DD02889F
:104110009B188A1E012A05DD45885B19052901DDEA
:1041200081885B1851084D1C6D0049004019511AD7
:10413000012901D1027822702288D218130C1204AE
:10414000120C9B18180C1B041B0CC018002E04D05A
:10415000030600041B0C000E184380B203B0F0BD30
:104160001A00D0E7F0B54F46D6464646C0B5914650
:104170001A68089B8A46196804000B041B0C090C7A
:104180005B181104090C5918130C5B18180C1B044C
:104190001B0CC318180C1B041F0CC719002C21D0B2
:1041A000FF2300260125984661896068FFF76EFFAE
:1041B000C019030C0004070CDF1963891D4207D0E6
:1041C00042463B06380A1B0C104003431F006E405A
:1041D0002468002CE8D1002E04D03B063F041B0CC1
:1041E0003F0E1F43534698B2FFF748FD0400484670
:1041F000FFF744FD2018C019030C0004000C181828
:10420000030C0004000C1818C04380B2E0BCBA468E
:10421000B146A846F0BDC04610B582B0049C0094DB
:10422000FFF7A0FF02B010BD10B5FFF72FFFC0438E
:1042300080B210BDF0B5C646040000B500282AD0F3
:10424000FF23002600270125984661896068FFF753
:104250001DFFC019030C0004070CDF1963891D4200
:1042600007D042463B06380A1B0C104003431F0090
:104270006E402468002CE8D1002E09D03B0638049B
:104280001B0C000E1843C04380B280BCB846F0BD82
:10429000F84380B2F9E70148F7E7C046FFFF0000A6
:1042A00003220A4B002103339343094A0948136050
:1042B000FA22520119719918016001201A600871DF
:1042C00005499950054A13607047C046D8BF002081
:1042D000D0BF0020D4BF0020401F401F1C2500205D
:1042E000F0B5D6464F464646C0B500285DD0830798
:1042F00000D069E00300394A083B12689A4260D84E
:1043000037490C30096881425BD31879002861D0A5
:10431000FA201D88400185420CD85C88A246844260
:1043200008D8981A80B280461619A04205D0308865
:10433000404502D02B4810F00BF95019814202D0B1
:1043400044884445F6D100241C71274CA4462468B7
:104350009C4202D9644623601C00994237D98342AB
:1043600013D00779002F10D181420ED0A04224D063
:1043700005881D800188FA204001814205D0404611
:104380005118488059888A465618B3420DD0317961
:1043900000290AD1A3420DD0FA2135801B8849019A
:1043A0008B4202D0D31852465A80E0BCBA46B1467E
:1043B000A846F0BD61460E60EEE761461C000B604A
:1043C000D6E70A4810F0C4F8094810F0C1F80948C7
:1043D00010F0BEF8084810F0BBF8C046D0BF00206F
:1043E000D4BF0020447E01101C250020007E011057
:1043F000DC7D0110787E01101C7E0110F0B5C646F0
:104400003B4BCA1C00B513400B2B3FD9FA2252017B
:1044100093423ED899423CD8364A146884425ED8CA
:10442000354A126882425AD90500083D291B8AB2D2
:1044300090462E8841463200083A521A92B29A4269
:1044400050D320D0A7193979002924D1FA2252015A
:1044500096424AD03A88294E9446424608329B18E2
:1044600032689BB2BA4237D0E218614611804146A9
:1044700000265180FA2116712B80128849018A4248
:1044800001D0A218538080BCB846F0BD0C239942DD
:10449000C2D90020F7E71F001437BFB2BA42F2D3E7
:1044A000424608329B18FA229BB2520196421CD017
:1044B000124FE2183968914200D93A60414600270C
:1044C0005180FA21177116802B80128849018A4287
:1044D000D9D0A4186380D6E7E2183260C5E708484F
:1044E00010F036F8074810F033F8074810F030F8AD
:1044F000FCFF0000D0BF0020D4BF00201C250020FE
:10450000947E0110AC7E0110CC7E0110F0B5D64631
:104510004F464646C0B500282FD03D4CC31C1C401A
:104520000B2C30D9FA235B019C4226D8A04224D818
:10453000384BFA229C461B6852019A46364B121B96
:104540001E6853469B1B98B21B0490461B0C9A4254
:1045500013D908277F4208E01588FB1A5B19A3428C
:1045600013D22B002800434507D2F21811790029F5
:10457000F2D0108803004345F7D30020E0BCBA46D0
:10458000B146A846F0BD0C24D0E71427B846A04495
:104590004746BFB2BB421CD2012308341371A4B2F8
:1045A0001E4B1868130092450ED0A418A0422CD3BD
:1045B000100008309307E1D019480FF0C9FF1B889D
:1045C000F318197900291AD09842F8D16346186077
:1045D000EBE7FA270834A4B203197F019BB2B9466E
:1045E000BB420FD0F718397101213D8078801380CC
:1045F000117139884945D3D071184B80D0E7614695
:104600000B60D2E707480FF0A3FF07480FF0A0FFA9
:10461000FCFF00001C250020D0BF0020D4BF0020DC
:10462000107F0110CC7E0110E07E011024230022B7
:10463000F0B54746CE469046994603320425944647
:1046400080B5124F124B134CB94441463A68216071
:10465000614603338B43002D0BD0168800210022C6
:1046600000E0030001321960981919002360AA4282
:10467000F7DB0437B94504D03A6894685368558825
:10468000E3E7C0BCB946B046F0BDC04604800110A7
:1046900058B6002080BE002010B5082810D80B4B5B
:1046A0008000C458FCF7F8FEA3681C68002C03D0F7
:1046B00022681A60A30705D1FCF7F0FE200010BDA8
:1046C0000024FBE702480FF043FFC04604800110BE
:1046D000547F011070B50C0008280ED800290CD0AA
:1046E000084B8000C5588B0708D1FCF7D5FEAB6896
:1046F0001A6822601C60FCF7D1FE70BD02480FF002
:1047000027FFC04604800110787F01100C20404232
:104710007047C04670B505000C00160082B0002935
:104720002AD043680A689A4201D102B070BD336052
:10473000300001A9019201F087FE300001A905F0C7
:10474000ABF901A9300000F05DFE392322686A60F0
:10475000E95C343B0B40052B05D0EB69002BE4D022
:1047600028009847E1E7002AF7D00B07F5D5280085
:10477000291D09F025FAF0E701480FF0E9FEC046CF
:10478000288001107047C046F0B5C64600B5040049
:104790000E001700984682B000286AD0099B002BB3
:1047A00067D0002900D174E0002F00D16FE04346AC
:1047B000002B69D03F4B0025636100223923200084
:1047C0006560A560E56025860021E254283004225A
:1047D00011F0A2FF089BE56163623C232562364D20
:1047E0002A78E2540A9B23613368002B3AD13100C6
:1047F000200001AAFFF78EFF0122A168E0683B6854
:10480000994200D0A36043461B68984200D0E36001
:10481000002A33D02000099B9847002829D1274B34
:104820003C2698461F683C23E05C00239C46FF28FA
:1048300002D163460020A355002F2CD0BC4236D0B5
:104840003B00FF2207E01B68002B24D09C422ED0A7
:10485000013A002A0AD0995D8142F4D10130C0B2F8
:10486000A055E4E7002000210022C8E714480FF01B
:104870006FFE002002B080BCB846F0BD31002000C1
:1048800001AAFFF747FFC5E70E4B984692E70D4F89
:104890008DE70C4E88E7FE2807D00130C0B24346B2
:1048A0002870276020001C60E4E70020F7E7064836
:1048B0000FF04EFE0D47001014EC0020A0BE0020AB
:1048C0004C800110489601103880011030B504006A
:1048D0000D0083B0002805D0002921D063682A6824
:1048E0009A4201D103B030BD684601A901920093FC
:1048F00001F0AAFD684601A905F0CEF801A96846B5
:1049000000F080FD39232A686260E15C343B0B4093
:10491000052B07D0E369002BE4D020009847E1E79E
:10492000054DDBE7002AF5D00B07F3D52000211D4C
:1049300009F046F9EEE7C04648960110F0B50400CC
:104940000D0016001F0083B000294ED0002E4AD063
:10495000002F46D02B680022002B0CD03368A168B2
:104960008B4200D0A3603B68E1688B4230D1002AC3
:1049700031D003B0F0BD616801220029EED0684655
:10498000009101A9019301F05FFD684601A905F0BE
:1049900083F801A9684600F035FD39232A68626072
:1049A000E15C343B0B40052B07D1002A05D00B07F7
:1049B00003D52000211D09F003F9E369002B01D084
:1049C000200098473368A16801228B42CBD0C9E709
:1049D000E360002ACDD16A4629002000FFF79AFE45
:1049E000C7E7034FB6E7024EB2E7014DAEE7C04658
:1049F0004896011070B5041E16D04368002B17D1DD
:104A000039220121A35C194224D11D4B1A68A2420C
:104A10002ED01C4A1368A34204D126E01A68A24291
:104A200003D01300002BF9D170BD22681A60FBE798
:104A3000051D0021280001F007FD0021280005F0D8
:104A40002BF80021280000F0DDFC39220121A35CB5
:104A50001942DAD018008843A0541B070BD4E3692D
:104A6000002BD2D020009847CFE723681360DBE704
:104A700000221A60CDE7200008F000FDEFE7C046F5
:104A80009CBE0020A0BE0020014B18607047C046AD
:104A90009CBE002070B5041E15D03925435DDA0791
:104AA00011D401221343DBB24355C269002A01D05D
:104AB0009047635D05221A40052A04D16268002AE6
:104AC00001D01B0700D470BD2000211D09F078F82B
:104AD000F9E7C04670B5041E03D03925435D5A0777
:104AE00000D570BD04221343435505F08BFF052309
:104AF000625D1340052B05D0236A002BF1D0200006
:104B00009847EEE76368002BF6D01307F4D5200032
:104B1000211D09F055F8EFE710B500280AD0392219
:104B20000421835C194205D08B438354036A002B14
:104B300000D0984710BDC046021E0ED0084B186822
:104B4000002809D03C2102E00068002804D0435C22
:104B50000133DBB29342F7D170470020FCE7C04637
:104B6000A0BE0020F8B505000026002826D00F279B
:104B70000BE0012B24D0002B2AD12800FFF7B0FB3B
:104B80000136F6B2002C19D02500FCF785FCAC7B71
:104B9000002C1AD0013CE4B2AC73FCF77FFC002C73
:104BA0000CD12B7B2C683B40022BE2D12900082042
:104BB0000136FFF78FFDF6B2002CE5D13000F8BDCD
:104BC00029000720FFF786FDDAE703480FF0C0FC55
:104BD00002480FF0BDFCC0467C800110948001109B
:104BE00010B5FCF759FC0022084B1A70FCF756FC74
:104BF000074B1868002803D107E0C068002804D0DC
:104C0000436F002BF9D001F06DFC10BD15EC0020B6
:104C1000ACEB0020F0B5C1234F464646D646804651
:104C2000C0B50D00170084B25B009A423FD008D88F
:104C30001400433BFF3B9C43012C6AD03C480FF0DF
:104C400087FCA0239B009A42F8D1E31C0324CA1CD2
:104C5000A343A2439B189BB21800103080B293422A
:104C60001ED382421CD8FFF751FC061E19D0002328
:104C700003604346C71813372E4B2904A7430D433F
:104C800047608560C3600CE0FCF706FC01222A4BFC
:104C90001A70FCF703FC002E02D03000FFF762FF11
:104CA00000263000E0BCBA46B146A846F0BD00235D
:104CB0009846224B00269A4600230327994607E090
:104CC00043466D1AADB21860002DEAD0804600242C
:104CD0000820FFF7E1FC0028D6D05246E31CBB4376
:104CE000D31A1A1C9BB2AB4200D92A1C4B4604199A
:104CF00003601334124BBC4391B24460058142817E
:104D0000C360002EDCD16D1AADB20600002DDDD1DE
:104D1000C7E70720FFF7C0FC061EC2D00023290406
:104D20000D4303604360856007734373C481B8E734
:104D3000A88001108000010015EC0020EC050000A7
:104D40008200010070B5041E34D002898A421CD949
:104D50000D008A1A07E023896D1A9B1823812468A5
:104D6000ADB2002C20D06189A942F4D3237B1B076C
:104D700001D1A9420AD1290420682943A160002851
:104D800001D0FFF7EFFE0023236070BD63682000B1
:104D9000191B691889B2FFF731FB002807D084423C
:104DA000E9D006480FF0D4FB05480FF0D1FB0548C9
:104DB0000FF0CEFB04480FF0CBFBC0461081011072
:104DC000DC800110F4800110C4800110030070B574
:104DD000002820D08022520291421AD2002916D0F7
:104DE00002898CB2A21892B2944212D8057B01209B
:104DF0007F2D0DD95D68691A1D001035A94207D3B2
:104E000059605989002064185C811A8100E00020F3
:104E100070BD0120FCE701480FF09AFB2C810110C6
:104E200010B5002818D080235B02994212D20029C5
:104E30000ED043898AB29A420CD844689B1AA44681
:104E40004381038961449A1A41600281002010BDA8
:104E50000020FCE70120FAE701480FF079FBC0468B
:104E60002C81011010B5002915DB00282FD0002956
:104E700023D003898AB2D3189BB29A4225D8047BE7
:104E80007F2C1CD84468611A416041890381521803
:104E90004281002010BD002819D0494243898AB2BE
:104EA0009A4212D844689B1AA446438103896144FC
:104EB0009A1A416002810020ECE70020EAE744688A
:104EC000611A04001034A142DED20120E2E7014859
:104ED0000FF03EFB2C81011010B5002802D0FFF727
:104EE00041FE10BD01480FF033FBC0462C8101107C
:104EF00003000020002B04D01B68013080B2002B7F
:104F0000FAD1704710B5041E09D0FCF7C5FAA37B8F
:104F10000133A373FCF7C2FAA37B002B00D010BDB2
:104F200001480FF015FBC0463881011010B500286C
:104F300014D0002912D00368002B07D002890C89F5
:104F40001219028118001B68002BF7D102894389CE
:104F5000934204D10A8901609B18038110BD014866
:104F60000FF0F6FA4C81011010B50C0000281FD08C
:104F700000291CD00368002B07D002892189521810
:104F8000028118001B68002BF7D1028943899342E4
:104F900014D1228904609B180381FCF77DFAA37B5E
:104FA0000133A373FCF77AFAA37B002B03D010BD67
:104FB0000029FCD0F1E703480FF0CAFA02480FF0CD
:104FC000C7FAC046388101104C810110F0B54F4638
:104FD000D64646468146C0B5884692461F000029FF
:104FE00000D184E00B89934200D280E0002800D1F8
:104FF0007DE053460289FB189A4200DA77E00026EA
:1050000044890CE043465A891B899A423DD04B465D
:105010005C891B899C424DD05346002B57D0434698
:105020005B89E41B9B1B9C4200D91C005546A24592
:1050300000D925004B465B682A00D81943465B68B7
:105040007F19991911F06EFB534676195D1BABB2AF
:105050009A464B465C89BC424CD343465B89B3427B
:105060004BD305D143461B6800269846002B17D02A
:10507000BC42C7D14B461B689946002B1FD0434604
:105080005A891B8900279A42C1D143461B68002BCD
:10509000BDD006204042E0BCBA46B146A846F0BDAD
:1050A0005346002B23D1BC4219D04B461B899C424E
:1050B0000DD100264B461B68002BADD0E9E75346C7
:1050C000002B14D143461A895B899A4201D00020F3
:1050D000E1E743461B68002BDBD10020DBE74B46B2
:1050E0001B689946002BF2D000275C89DDE7102071
:1050F0004042D0E702480FF02BFA02480FF028FA9E
:105100007C8101109481011010B5002904D0002386
:105110000A89FFF75BFF10BD10204042FBE7C04645
:10512000F0B5C6460500884616001900002700B5F0
:10513000002828D04346002B25D0002A05D122E0A4
:105140002D68091B89B2002D1DD06C89002901D062
:10515000A142F5D2641AA4B2321CA64200D9221C84
:105160004346D8196B6894B29C46361B22006144B2
:10517000E719B6B211F0D6FABFB22D68002E02D0F0
:105180000021002DE1D1380080BCB846F0BDC046FA
:10519000F8B5CE46474605008846914680B50028BA
:1051A00024D0002922D0038993421CD31600002763
:1051B000002A02D112E0002D1BD06C89B44200D924
:1051C000340043466868D919220011F0ABFA361B47
:1051D0002D683F19002EEED1B9450DD10020C0BC7D
:1051E000B946B046F8BD01204042F8E710204042E1
:1051F000F5E703480FF0ACF902480FF0A9F9C046F3
:10520000B0810110C8810110F0B5D6464F46464620
:1052100004008A46C0B5002805D13AE024685B1B2B
:105220009BB2002C35D065899D42F7D921899F1802
:10523000B9422EDBE91A8A4232DD8AB290466268B0
:105240005146D0187D1B424611F06CFAABB299461C
:10525000002B1CD02568002D29D02B894B4518D355
:105260004F46002601E0002D24D06C89BC4200D9B5
:105270003C004346F11868682200514411F052FA8C
:105280003F1B2D683619002FEDD1B14515D10020F7
:1052900001E001204042E0BCBA46B146A846F0BD5C
:1052A00060685146C01811F03DFA0020F3E7102065
:1052B0004042F0E702480FF04BF902480FF048F97E
:1052C000B0810110C88101100B0070B51500118963
:1052D0001A00FFF79FFC041E06D0002329002A892C
:1052E000FFF774FE002801D1200070BD01480FF0C7
:1052F0002FF9C046E081011005E043898B4205D8B3
:10530000C91A006889B20028F7D1704743685A5417
:10531000FBE7C046F0B5DE46454657464E46814659
:10532000E0B5344F83B03968786909F0B7FD4B4672
:105330005A68314B80461C689B460020557A002CE9
:105340003AD00026844604E0E3682600002B32D0E1
:105350001C00237CAB42F7D1217A002906D03C23E4
:105360007868C35C0133DBB29942EDD14346002B30
:1053700029D02368002BE7D10121637C194203D097
:10538000636839698B42DFD163699A46002BDBD0B1
:10539000019221004A46194BA069D047002819D133
:1053A0004B465A68019B9A4221D102239C46E368EE
:1053B0002600002BCCD1604603B0F0BCBB46B24601
:1053C000A946A046F0BD2368002BD5D079698B4251
:1053D000BAD1D1E7002E08D0E3680120F3605B4624
:1053E0001B68E3605B461C60E6E70120E4E70448D5
:1053F0000FF0AEF80025002034DF0020102500203B
:10540000F481011010B5002811D00268002A0ED0D6
:1054100000290CD00B68002B09D0094B1B68002B0E
:1054200005D01C68944203D0DB68002BF9D110BD75
:105430000A681A60DB68002BF9D00268F1E7C04601
:1054400034DF00207047C04610B5041E23D0037D12
:10545000042B05D0072B0FD00020032B00D010BD4C
:10546000200003F029F800280AD105232375200025
:1054700003F04EFB0020F2E703F01EF8002807D0EF
:10548000431CECD10822638B002013436383E6E7BF
:1054900009232375EBE701480FF05AF84082011009
:1054A00070B50600806F002803D0FFF715FD0023BC
:1054B000B367746F002C18D06068256800280CD082
:1054C000FFF70AFD21000420FFF704F9002D0AD0A0
:1054D0002C00606825680028F2D121000420FFF725
:1054E000F9F8002DF4D1002373670123F46E5B42B9
:1054F0003386002C16D06068256800280CD0FFF792
:10550000EBFC21000420FFF7E5F8002D0AD02C0069
:10551000606825680028F2D121000420FFF7DAF83E
:10552000002DF4D1346F002C16D060682568002857
:105530000CD0FFF7D1FC21000420FFF7CBF8002DA1
:105540000AD02C00606825680028F2D121000420D0
:10555000FFF7C0F8002DF4D100236822F36633670B
:10556000B35270BD10B5FCF757FB044B80049C464A
:10557000800C034B6044188010BDC04600C0FFFF84
:105580000007002010B5037D0100012B03D002208D
:10559000FFF7A0F810BD01480EF0DAFF4C820110B1
:1055A000F8B5031E1FD0078DC16A456A5C8E114E87
:1055B000781A4019221CB4420BD892B2821A0CD528
:1055C000491B0CD48022520291420FD200205985EF
:1055D000F8BD321C92B2821AF2D45F85F8E700223D
:1055E00000205A85F4E704480EF0B2FF03480EF09D
:1055F000AFFFC046D0160000608201108482011007
:10560000F8B500281DD0037D012B34D0028D1D4B31
:10561000511889B299421BD91900466A458E1A4F12
:10562000C46A0185F3182A1CBD420BD892B2121924
:105630009A1A11D5A41B1BD48022520294421DD267
:105640004485F8BD3A1C92B212199A1AF2D403E0BA
:105650008A42E1D80B00E0E70C4A41851B1B9342CC
:10566000EFD90222438B1343438303F051FAE8E757
:1056700000234385E5E706480EF06AFF05480EF073
:1056800067FFC046A02D0000D0160000670B000089
:10569000A082011084820110F0B5DE4645465746CF
:1056A0004E46E0B5BF4DC04A2B6887B001332B6032
:1056B000BD4B1B7801331370BC4B9B465B461C688B
:1056C000002C00D1CCE000230593237D002B00D1DA
:1056D00012E2012B00D115E20A2B00D10FE2B24AEF
:1056E000A17F1278914200D158E1A2774222A25CB8
:1056F000022B00D1FDE00B2A00D9F7E0A122A65C25
:10570000002E00D15AE1226F002A00D012E2E26E90
:10571000002A00D10BE2A222A25C0B2A00D9E5E00C
:10572000A020A34A9619013E3178225C8A4200D219
:105730008DE16023E15A002900D0B9E0200003F098
:10574000F1FC002800D0BFE0A0230022E254A132E7
:10575000A35C062B00D9B7E0012700260133A35430
:10576000237D062B00D1B5E008210800627A1040A5
:105770008046114227D0042B00D05EE12B68226ABC
:10578000FA219B1A99469423E35849009A46982394
:10579000E35898469C23E05843465843504410F041
:1057A0000DFA814500D93EE1A3274346E05DFA2189
:1057B000434318004900504410F000FA0023984673
:1057C000814500D94AE1676F002F0AD02B68226A11
:1057D0009A1A4023E15E4B005B185B009A4200D3AB
:1057E00005E1237D032B00D18AE0092B00D0AEE038
:1057F0002B68226A9B1AF02B00D887E09023E6588A
:105800002000FFF74DFE059B002B00D1ADE05B466D
:105810001B68A34200D17EE1059BE268DA60434643
:10582000002B00D0ADE023699946E3689846237DBC
:10583000012B00D16CE121000220FEF74BFF002379
:105840005C4C2370002E07D00D2148464942B047DA
:105850002378002B00D031E74446002C00D034E7F9
:10586000554F00243968002904D11AE00C00C9689A
:10587000002916D00B7D0A2B00D046E12B680A6A5E
:105880009B1AF02BF2D9002C00D1DAE03B688B4256
:1058900000D143E1CE68E6600220FEF71BFF311E17
:1058A000E8D107B0F0BCBB46B246A946A046F0BD61
:1058B000200002F01FFD002800D045E7200003F083
:1058C00027F9002800D03FE7237D01270026062B7B
:1058D00000D049E7638BDB0605D52B68226A9B1A4B
:1058E000282B00D93E00002398466CE702270126AA
:1058F00037E7052A00D801E700230126984662E72A
:105900002B68226A9B1A282B00D977E7002E00D03B
:1059100074E7237F627F0133DBB2E66823779A4224
:1059200012D80023234A237713708C33E358002BBB
:1059300000D17CE02100206998471E4B1B78002B8A
:1059400000D0BBE6002872D00594340085E7002E15
:10595000DFD09022A658012B00D854E70A2B00D0A4
:105960004EE7059B002B00D051E75B461B68A34226
:1059700000D0D9E05B46E2681A604346002B00D1B4
:1059800051E7238B626A216D0293E38A2000019321
:10599000231D0093230002F085FF44E70594E4688B
:1059A0005BE7C046BCEB00201AEC0020ACEB00200B
:1059B0002486011018EC0020C0EB00203022A15EEC
:1059C0005E48228E824202D8013211B221864022E4
:1059D000A25E01278A4200DDC3E6200002F094FEA9
:1059E000002848D0236F002B42D0237DB9E6786889
:1059F000A1463C6800280CD0FFF76EFA390004205D
:105A0000FEF768FE002C0AD0270078683C68002862
:105A1000F2D139000420FEF75DFE002CF4D14C4693
:105A200000236367DDE601233E009846CBE62000B5
:105A300003F06EF8059434000FE7072B00D19DE6C4
:105A400051E73B688B426CD1CE683E6024E701325F
:105A5000D2B222548A4200D237E76AE6200003F02D
:105A6000F1FA002800D0AEE6E35D0133E355AAE683
:105A7000E36E002BB9D0237D022B13D03C22A35E12
:105A80003E21625EDB109B184222A15C0A1C0C299D
:105A900029D82B49D2B28A5C9340284A934220DC11
:105AA0004022A3520023482123866033E25A605AE1
:105AB000131C824200D9031C4A209BB25B0823526C
:105AC000618E4A0092B2934200D2225248230022B1
:105AD000E1522233E252200003F050FA0127237DE5
