:020000041000EA
:1000000000B5324B212058609868022188439860DF
:10001000D860186158612E4B002199600221596106
:100020000121F02299502B49196001219960352056
:1000300000F044F80222904214D00621196600F024
:1000400034F8196E01211966002018661A6600F04E
:100050002CF8196E196E196E052000F02FF8012189
:100060000842F9D1002199601B49196000215960AB
:100070001A491B48016001219960EB211966A021F2
:10008000196600F012F800219960164914480160C1
:100090000121996001BC002800D000471248134993
:1000A000086003C880F30888084703B5996A0420EC
:1000B0000142FBD001200142F8D103BD02B5186610
:1000C0001866FFF7F2FF186E186E02BD00000240BE
:1000D000000000180000070000035F00212200005C
:1000E000F4000018222000A00001001008ED00E03C
:1000F00000000000000000000000000074B24E7A12
:1001000000200420F7010010C3010010C5010010F9
:10011000C1010010C1010010C1010010C101001097
:10012000C1010010C1010010C1010010C701001081
:10013000C1010010C1010010C9010010CB01001065
:10014000CD010010CD010010CD010010CD01001037
:10015000CD010010CD010010CD010010CD01001027
:10016000CD010010CD010010CD010010CD01001017
:10017000CD010010CD010010CD010010CD01001007
:10018000CD010010CD010010CD010010CD010010F7
:10019000CD010010CD010010CD010010CD010010E7
:1001A000CD010010CD010010CD010010CD010010D7
:1001B000CD010010CD010010CD010010CD010010C7
:1001C00000BE00BE00BE00BE00BE00BEEFF3058054
:1001D000103800BEF2EB8871982E0510C02E051065
:1001E0003402001090A31AE700201F49086006C8D7
:1001F00081F3088810471D48006800282FD10DA4FE
:100200000ECC002902D000F012F8F9E71849194A7B
:10021000002000E001C19142FCD1174988471749ED
:1002200088471749884700BEFDE701C901C29A42C5
:10023000FBD37047C02E0510C000002044110020E1
:10024000443F05100000042000000420443F051036
:10025000001004200010042000000000704709482E
:1002600003F0DEFA0047000008ED00E0000000D0D7
:100270007811002010410320B15C0110751D0010A1
:10028000D95D01105756000006005250ABB36053C1
:10029000E02C051006005250861C0302F02C0510BD
:1002A000060052505422A29DFC2C0510050052500D
:1002B000DE65F468443F0510F8B5C04610B5064C3D
:1002C0002378002B07D1054B002B02D0044800E017
:1002D00000BF0123237010BD88140020000000001F
:1002E000F88F0110044B10B5002B03D003490448CC
:1002F00000E000BF10BDC046000000008C140020CC
:10030000F88F0110F0B5DE4657464E464546E0B53B
:10031000424B83B01B68002B00D07DE0404B1B6834
:10032000002B1ED100263F4B3F4C99463F4A1B688D
:1003300017002660002B13DD00223D0053009B18A0
:100340009B00FB1828009B68984723680C355A1CB3
:100350004B461B6822609A42F0DB2660002BEBDCE8
:10036000FEE7012B06D003B0F0BCBB46B246A9465F
:10037000A046F0BD2B4B002599462C4B2A4C9846A5
:100380002B4B2C4E9A462C4F4A4633681268013349
:1003900033602560002A00DCFEE7C3463D6004F0C0
:1003A000ADFC534622681860596053009B189B00AF
:1003B00043449B68584698473B68012B0BD00C225E
:1003C00094464A462368126801332360E34493420B
:1003D000E4DB3368DBE72368184A9B00D2581749EF
:1003E00000920132CA5004F089FC154A23689446F1
:1003F000DB009C4400900191634651461A685B689B
:1004000008684968121A8B4100980199801859416F
:10041000634618605960B7E79F46C046C0C00020D9
:10042000C8C00020CCC000205C260020D4C0002022
:1004300070140020CCE60020B8C00020D4E60020D4
:10044000D0120020F0B5DE4657464E464546E0B590
:10045000424B83B01B68002B00D07DE0404B1B68F3
:10046000002B1ED100263F4B3F4C99463F4A1B684C
:1004700017002660002B13DD00223D0053009B185F
:100480009B00FB1828009B68984723680C355A1C72
:100490004B461B6822609A42F0DB2660002BEBDCA7
:1004A000FEE7012B06D003B0F0BCBB46B246A9461E
:1004B000A046F0BD2B4B002599462C4B2A4C984664
:1004C0002B4B2C4E9A462C4F4A4633681268013308
:1004D00033602560002A00DCFEE7C3463D6004F07F
:1004E0000DFC534622681860596053009B189B000E
:1004F00043449B68584698473B68012B0BD00C221D
:1005000094464A462368126801332360E3449342C9
:10051000E4DB3368DBE72368184A9B00D2581749AD
:1005200000920132CA5004F0E9FB154A2368944650
:10053000DB009C4400900191634651461A685B6859
:1005400008684968121A8B4100980199801859412E
:10055000634618605960B7E79F46C046C4C0002094
:10056000C8C00020D0C00020602600204CC1002060
:1005700078140020D0E60020BCC00020FCE600205B
:1005800020130020D0231B061B6810B5012B05D0BB
:100590000022054B1A60FFF7B5FE10BD0022034B89
:1005A0001A60FFF74FFFF8E7C0C00020C4C000206A
:1005B00030B56025AB4C83B021E0A37B012B2CD060
:1005C000E37B012B34D0237C012B3DD0637C012BBA
:1005D00046D0A37C012B4FD0E37C012B58D0237D48
:1005E000012B61D0637D012B6AD0A37D012B73D0D9
:1005F000C0232435ADB20C345B009D427BD0637BBD
:10060000012BDAD10633009304221D33D22029B204
:1006100002F06EF9A37B012BD2D1063300930422A2
:100620001D33F62029B202F063F9E37B012BCAD116
:100630008D200633009304221D3329B2400002F0BE
:1006400057F9237C012BC1D19F200633009304224C
:100650001D3329B2400002F04BF9637C012BB8D165
:10066000B1200633009304221D3329B2400002F06A
:100670003FF9A37C012BAFD1C320063300930422A2
:100680001D3329B2400002F033F9E37C012BA6D1DF
:10069000D5200633009304221D3329B2400002F016
:1006A00027F9237D012B9DD1E720063300930422F7
:1006B0001D3329B2400002F01BF9637D012B94D158
:1006C000F9200633009304221D3329B2400002F0C2
:1006D0000FF9A37D012B8BD1063329B2009304229D
:1006E0001D33614802F004F9C0232435ADB20C3447
:1006F0005B009D4283D180255C4C26E0A37B012BCF
:1007000031D0E37B012B39D0237C012B41D0637C9A
:10071000012B4AD0A37C012B53D0E37C012B5CD06E
:10072000237D012B65D0637D012B6ED0A37D012B32
:1007300077D0E37D012B00D180E0BE232435ADB21C
:100740000C345B009D4200D188E0637B012BD5D146
:10075000063300932422033BB22029B202F0C8F8EA
:10076000A37B012BCDD1063300932422033BD6205B
:1007700029B202F0BDF8E37B012BC5D1063300930B
:100780002422033BFA2029B202F0B2F8237C012B89
:10079000BDD18F20063300932422033B29B24000B1
:1007A00002F0A6F8637C012BB4D1A120063300939C
:1007B0002422033B29B2400002F09AF8A37C012BCB
:1007C000ABD1B320063300932422033B29B240006F
:1007D00002F08EF8E37C012BA2D1C52006330093F2
:1007E0002422033B29B2400002F082F8237D012B32
:1007F00099D1D720063300932422033B29B240002D
:1008000002F076F8637D012B90D1E9200633009346
:100810002422033B29B2400002F06AF8A37D012B99
:1008200087D1FB20063300932422033B29B24000EA
:1008300002F05EF8E37D012B00D07EE7063329B29B
:1008400000932422033B0A4802F052F8BE232435C9
:10085000ADB20C345B009D4200D076E78025054C9C
:100860002CE0C0466007002016020000DC060020D5
:100870001A0200006C060020A37B012B2CD0E37B26
:10088000012B34D0237C012B3DD0637C012B46D03F
:10089000A37C012B4FD0E37C012B58D0237D012B6F
:1008A00061D0637D012B6AD0A37D012B73D0BE2361
:1008B0002435ADB20C345B009D427BD0637B012BB1
:1008C000DAD1063300930422033BD22029B202F08E
:1008D0000FF8A37B012BD2D1063300930422033BF4
:1008E000F62029B202F004F8E37B012BCAD18D2057
:1008F000063300930422033B29B2400001F0F8FFC5
:10090000237C012BC1D19F20063300930422033B9B
:1009100029B2400001F0ECFF637C012BB8D1B1207B
:10092000063300930422033B29B2400001F0E0FFAC
:10093000A37C012BAFD1C320063300930422033BD9
:1009400029B2400001F0D4FFE37C012BA6D1D520D1
:10095000063300930422033B29B2400001F0C8FF94
:10096000237D012B9DD1E720063300930422033B16
:1009700029B2400001F0BCFF637D012B94D1F92026
:10098000063300930422033B29B2400001F0B0FF7C
:10099000A37D012B8BD1063329B200930422033BA4
:1009A000054801F0A5FFBE232435ADB20C345B0031
:1009B0009D4283D103B030BD16020000F0B5DE4683
:1009C00057464E464546E0B502680400012383B011
:1009D000002A44D0C84D2560002B07D1012003B068
:1009E000F0BCBB46B246A946A046F0BD04F086F96D
:1009F000C24E73688B42F1D802D133688342EDD87E
:100A0000D0231B061B68012B00D173E20122BC4BD3
:100A10001A60BC4B1B68012B00D1E9E0002B01D10F
:100A2000B94A1360B94F3A68B94B1B68012B00D122
:100A300022E1002B01D1B7490B60002A00D1F1E07F
:100A4000B54A1368002B00D1A4E104F057F9002344
:100A5000B24A80185941002330607160BBE7B04B47
:100A6000B04D99464A46B04BB04F03CB03C2B04B92
:100A700098464246AF4B196811601B791371AE4B13
:100A80009B465A46AD4B1360AD4B9A465246AD4B12
:100A9000196811601B7913712A00AB4B03CB03C299
:100AA0003A00AA4B03CB03C2A94BAA4A03CB03C209
:100AB000A94BAA4A03CB03C2A94AAA4B03CB03C240
:100AC0001B881380A84AA94B43CB43C2A84AA94B11
:100AD00003CB03C211001A8802200A809B788B7016
:100AE00002F00EF9052002F015F93C21B22002F0C7
:100AF000FDF8280002F018F9022002F00BF99A2004
:100B00003C21400002F0F2F8404602F00DF90220CC
:100B100002F000F96421282002F0E8F8484602F0CB
:100B200003F9072002F0F6F88221282002F0DEF80F
:100B3000404602F0F9F89621282002F0D7F85846EE
:100B400002F0F2F8AA21282002F0D0F8504602F074
:100B5000EBF8D221282002F0C9F8280002F0E4F8CE
:100B6000E621282002F0C2F8380002F0DDF8FA2170
:100B7000282002F0BBF8774802F0D6F88721282019
:100B8000490002F0B3F8754802F0CEF80725C622F6
:100B900004235C21AE200095520001F0A9FEC6227C
:100BA000BE210423B22000955200490001F0A0FEAE
:100BB000902304226021AE2000955B0001F098FE96
:100BC000902304225C216C4800955B0001F090FEAC
:100BD0000223B221009310220E336848490001F02D
:100BE00087FE484B454E1B68434D012B00D015E74F
:100BF000454A1168002900D014E7444F13603A6851
:100C0000002A00D0FAE05E4B1A68002A00D103E205
:100C10003F4A1268012A00D162E2002A03D13D490D
:100C20000A6000E0564B1B68002B00D11FE1554ABB
:100C30001368002B00D008E701211160C422009343
:100C40001D33FF3352005F31B22001F051FE052009
:100C500002F056F8032002F05DF8C821C82002F027
:100C600045F8414802F060F8022002F049F80220FD
:100C700002F050F88C21B8E026480168002900D025
:100C8000DBE60360002A00D137E1234A39601160B6
:100C90003D4A13603D4B1B68002B00D18AE13C4B61
:100CA00098460023C422994600931D336021B22048
:100CB000FF33520001F01CFE4B4678223C21B2204B
:100CC0000093143301F014FE052002F023F83C21B8
:100CD000B22002F00BF843461B68002B00D196E1CE
:100CE000012B00D113E2022B00D117E2032B00D11C
:100CF000A4E03A68A1E6C046D6090010801400209E
:100D0000B8C00020181700201C170020A84003209E
:100D10002017002024170020AC400320A861000009
:100D2000B0E60020942600200C900110A826002098
:100D300028260020149001106CC000204D6964002A
:100D4000442600201C900110249001102C900110CA
:100D500034900110BC2600203C900110D0260020C9
:100D6000CC40032044900110B84003205090011063
:100D700094C000205C9001103A02000022020000A2
:100D8000E8260020EC260020ACE60020B04003203E
:100D90009026002001211160C42200931D33FF33EF
:100DA00052005F31B22001F0A3FD052001F0A8FF41
:100DB000052001F0AFFFC821FA2001F097FFE248BB
:100DC00001F0B2FF022001F09BFF022001F0A2FF20
:100DD0008221A0204900400001F088FFDB4801F09B
:100DE000A3FF072001F096FF9121A02049004000B9
:100DF00001F07CFFD64801F097FF26E6D54A10683F
:100E0000002800D0E3E00730136001F083FF822167
:100E1000A0204900400001F069FFCC4801F084FFA8
:100E2000022001F077FF9121A0204900400001F04D
:100E30005DFFC74801F078FF3A68F5E5C64801F064
:100E400073FFFFF7B5FB0123A12098460093102202
:100E50000F33C421400001F04BFD434600930F3394
:100E600010227021BD4801F043FD3A68E5E5BC4B16
:100E700098460223B2211022BA48009349000E334B
:100E800001F036FD0023F9200093782214333C2131
:100E9000400001F02DFD43461B68022B00D1A5E068
:100EA000032B00D0D1E50127A12000971022C421F7
:100EB0000D33400001F01CFD10220097102370211B
:100EC000A64801F015FDA84B186816F0E7FEA74FDD
:100ED00002000B003800A64916F05EFA032001F06C
:100EE00019FFF9203C21400001F000FF380001F01B
:100EF0001BFFAAE59F4A13608BE59F4B1A6891463A
:100F0000002A00D0C4E09D4B1B68002B00D1EEE00E
:100F1000012B00D144E1022B00D183E1032B00D14E
:100F2000A0E1042B00D155E1052B00D1B5E1062B42
:100F300000D1F5E1072B9AD1894B98461B68032B0A
:100F400097D04246032313600023984678223C2121
:100F5000B2200093143301F0CBFC052001F0DAFE3F
:100F60003C21B22001F0C2FE7B4801F0DDFE434689
:100F700000931D33FF33C4226021B220520001F0E0
:100F8000B7FCFFF715FB0123A120984600930F3310
:100F90001A00C421400001F0ABFC434600930F331C
:100FA0001A0070216D4801F0A3FC4246744B1A6090
:100FB0003A6842E56A4B032298461B680133D91709
:100FC000890F5B18134042465B1A136069E60220E2
:100FD000116001F09FFE8221A0204900400001F035
:100FE00085FE5A4801F0A0FE07201AE70127A1203C
:100FF0001022C42100970E33400001F079FC102329
:10100000102270215548009701F072FC1DE55D48E3
:1010100001F08AFE3A6810E5584B072298461B6893
:1010200007200133D917490F5B18134042465B1A5A
:10103000136001F06FFE43461B68002B70D0012B3C
:1010400000D159E1022B00D18AE1032B00D19BE1B1
:10105000042B00D1ACE1052B00D1BDE1062B00D162
:10106000CEE1072B00D0DEE4FA21282001F03EFE7D
:10107000454801F059FE022001F04CFE872128204E
:10108000490001F033FE344801F04EFE3A68CBE4EB
:1010900000221A603D4BB2201A600123994649464E
:1010A000374B19608E23009289325B00FF325F312B
:1010B00001F01EFC2A4B1B68012B00D1CDE000DCA7
:1010C00017E6FFF775FA4B46A12000931022102374
:1010D000C421400001F00CFC4B4600931023BFE6F6
:1010E0002B490868002800D09DE50A6006E7012129
:1010F000234A1160274A1068274A00141168082201
:1011000000930914083301F0F3FB3A6895E423488F
:1011100001F00AFEFFF74CFA3A688EE41A488EE6B0
:1011200087212820490001F0E1FD0B4801F0FCFD7A
:10113000022001F0EFFD6421282001F0D7FD0448D2
:1011400001F0F2FD3A686FE4CC40032094C0002027
:10115000B0E60020B0400320D02600202A02000084
:1011600090260020220200004807002068E80020A6
:1011700068900110BCC00020E826002030E8002064
:10118000ACE6002094260020BC260020EC2600209F
:10119000241700204C07002050070020A82600201C
:1011A000FA22A14B52041A609A204B4664223C2139
:1011B00000934000142301F09BFB022001F0AAFDE4
:1011C0009A203C21400001F091FD984801F0ACFDCF
:1011D0003A6832E4964B98461B68002B00D148E6EB
:1011E00043463C211A60B22014230092782201F079
:1011F0007FFB052001F08EFD3C21B22001F076FD41
:101200008C4801F091FD4B46C42200938E2352007E
:101210005B006021B22001F06BFB0122864B1A605B
:101220003A680AE4FA22804B92041A609A204B46EC
:1012300064223C2100934000142301F059FB062056
:1012400001F068FD9A203C21400001F04FFD7B48F1
:1012500001F06AFD3A68FFF7F0FBFFF7A9F93A6879
:10126000FFF7EBFBC822704BD2041A609A204B4662
:1012700064223C2100934000142301F039FB042038
:1012800001F048FD9A203C21400001F02FFD6C4800
:1012900001F04AFD3A68FFF7D0FB654B98461B68A2
:1012A000012B00D1E5E501239A46434652461A60D8
:1012B0004B4677323C21B2200093142301F018FBF7
:1012C000052001F027FD3C21B22001F00FFD5D4813
:1012D00001F02AFD4B46C42200938E2352005B008E
:1012E0006021B22001F004FBFFF762F95246524B35
:1012F0001A603A68FFF7A1FB6421282001F0F6FC90
:10130000514801F011FD022001F004FD8221282046
:1013100001F0ECFC454801F007FD3A68FFF784FB5B
:10132000434B98461B68022B00D1A2E5022342469C
:1013300013604B4678223C21B2200093142301F025
:10134000D7FA052001F0E6FC3C21B22001F0CEFCEA
:101350003E4801F0E9FC4B4600938E235B000AE611
:101360008221282001F0C2FC304801F0DDFC02207F
:1013700001F0D0FC9621282001F0B8FC2F4801F0A4
:10138000D3FC3A68FFF750FB9621282001F0AEFC11
:101390002A4801F0C9FC022001F0BCFCAA21282047
:1013A00001F0A4FC264801F0BFFC3A68FFF73CFBC3
:1013B000AA21282001F09AFC214801F0B5FC022066
:1013C00001F0A8FCD221282001F090FC194801F07E
:1013D000ABFC3A68FFF728FBD221282001F086FCFD
:1013E000144801F0A1FC022001F094FCE621282021
:1013F00001F07CFC134801F097FC3A68FFF714FBFE
:10140000E621282001F072FC0E4801F08DFC02203C
:1014100001F080FCFA21282001F068FC0B4801F063
:1014200083FC3A68FFF700FBD8060020282600203E
:101430009026002094260020ACE600206CC00020FE
:1014400044260020A8260020B0E60020BC2600206C
:1014500010B52E2009F014FFC122104C1049206055
:101460005200362004F0D8FF2068002811D00D4B20
:101470000D4A1968043109F01FFD002803D00B48FC
:1014800016F0A8FE10BD00222068094909F0C6FE2A
:10149000F8E7084816F09EFEF4E7C0469CE80020F6
:1014A0007905000084C000205C11000070900110DC
:1014B000C10000207C900110F0B54546DE4657463D
:1014C0004E46E0B5A84CA94D22682B688DB0134359
:1014D00000D098E0A64E3368002B00D09BE0A54BCF
:1014E0001F68A54B3A001868FB17C117984616F0FD
:1014F00045FB0904000CA14E0843A14B404230605B
:1015000018683A004346C11716F038FB0904000C6E
:101510009C4B08434042186099469B4B19683068C1
:101520000E009A46730F9C46C9170F00CB00614608
:10153000F2000B43921BBB415903D60C57030E43D9
:1015400033043E0C1E43914A0023C11716F016FBCC
:1015500053460904020C0A43B2181A608C4B1968EE
:1015600098460E004B461868730F9C46C9170F002B
:10157000CB006146F2000B43921BBB415903D60CD2
:101580000E43570333043E0C804A1E43C117002309
:1015900016F0F4FA43460904020C0A43B2181A6022
:1015A00053461B68002B63DD5346802219685202A4
:1015B0000123914200DB0023DBB261E0754B069A08
:1015C0001A609022920394460368734A63449446D7
:1015D0000360049B049A1B68634413605A466F4B74
:1015E0001B6812689B18049A3360036812689B1882
:1015F0003B60062330683968082200930914001400
:10160000023301F075F901200DB0F0BCBB46B246C3
:10161000A946A046F0BD624B1B68032B02D1614B6B
:10162000614A1A6001235B4A002413605F4AB621B5
:101630001360B2225E4B12041A60C0225D4BD203CB
:101640001A60C822504BD2031C60514B09041C6025
:10165000594B1A60594A116010681968062308220C
:10166000009309140014023301F042F93460CAE710
:10167000534601201A685249D3178A424341DBB2CC
:10168000002B02D000235246136043461B68002BF8
:1016900000DC43E143468022196852020123914253
:1016A00000DB0023DBB2002B02D000234246136094
:1016B0000023424E404F3068396808220914001454
:1016C00000939B46083301F013F9534618683B68B2
:1016D0002E4A9946C117002316F050FA43460904D2
:1016E000000C08434844386018683368274A994614
:1016F000C117002316F042FA0904000C08434844BD
:10170000306032682F4B9A4209DD32682E4B9A4284
:1017100005DCB0233A685B049A4200DD82E1204B8D
:101720001B68002B00D102E1012B58DD9F2231689C
:10173000520491424ADDA72231685204914245DAAF
:10174000C02239681204914240DDD0223968120467
:1017500091423BDAC823DB033B60B6231B043360B2
:10176000012323604FE7C046E8260020A84003205D
:10177000ACE60020D80600205C17002008160020E8
:1017800058170020E8140020A4400320660600003B
:10179000A04003205C0700200000DCFF540700206D
:1017A00090260020480700200000A0416806002085
:1017B0006006002064060020500700204C0700202F
:1017C0000100FFFF00001E02FFFF2D023168DB4A0F
:1017D000914204DD3168DA4A914200DC3BE1032B9F
:1017E00000D1CEE0D74A336893461268D6489B1A98
:1017F000D64AD74D1360D74A3B68049212689B1AA9
:101800000360D54B1A68D54B19684B1E1C00059315
:10181000530003939B189B00EB181B5D0793012B50
:1018200000D1C2E0039B9B189B00EB185B5C089304
:10183000002B06D0C54B1D68C0235B039D4200DD15
:10184000E9E0C74B551E9C466B00994606954D44F2
:10185000AD0065446C5C0994002C03D00568002D34
:1018600000DAF1E0039CA518AD0065446C5C0A94B5
:10187000002C05D0C02503686D03AB4200DDC1E03C
:10188000069CB84DA446CC446446A400A446AC448F
:101890006446059BE35C012B00D1E9E0069B9C4676
:1018A0004B4663449B00EB185B5C012B00D101E1CC
:1018B000039B059C9B189B00EB181B5D012B00D123
:1018C0001AE1039B9B189B00EB185B5C012B00D17A
:1018D00058E19E4B1B68002B40DB9C4B1D689023FE
:1018E0009B039D427BDC0368002B00DA66E69023B5
:1018F00001689B03994200DC70E6974B01321A6045
:10190000994A036894469022920363449446036084
:10191000049B049A1B68634413605FE643460120FE
:101920001A689249D3178A424341DBB2BBE6C0230F
:101930003A68DB039A424CDA3B60534652461B68D6
:101940005B421360B22332681B049A423BDA336075
:10195000434642461B685B4213604AE67F4B05994B
:101960001960902189038C46784B78491B68634441
:101970000B607D495B468C4659461B6863440B608F
:10198000B1E77B4D286816F089F97A4A7A4B15F051
:10199000B0FF16F083F80021286016F055F90028F2
:1019A00000D11FE7012323602DE6684B1B68002B45
:1019B00000DB37E7434644461B685B422360002355
:1019C000624C23602EE732686C4B9A4200DC10E6D2
:1019D000BDE7BA233A685B049A42B3DDACE75F4BDC
:1019E000013119606049594B8C461B685749634463
:1019F0000B6090215B4689038C4659461B68634403
:101A00000B6070E753461B685B429C465346644636
:101A10001C60056034E7444625686D4225604B4CE8
:101A200023600EE7B8233A685B049A4200DB76E64F
:101A3000C823DB033B60B6231B04336001235A46F3
:101A40002B604F4B1A60DEE553461D686D421D60EA
:101A50000025056006E7D8223968D203914200DCF0
:101A6000BDE6F8223968D203914200DBB7E671E6A1
:101A7000079B099C23430B9300D00FE7334B1C6853
:101A8000002C00DB0AE70468002C00DB06E7444674
:101A900024686442A44644466346236053461B6858
:101AA0005B429C46534664461C600B9B274C23605C
:101AB0000360F3E6099B089C23439C4600D0F7E6AD
:101AC000C024224B64031B68A34200DCF0E60368D9
:101AD000002B00DBECE6434644461B685B42236078
:101AE000534654461B685B422360C024174B640373
:101AF0001C6063460360DBE6079B0A9C23439C460D
:101B000000D0DEE6114B1B68002B00DBD9E6C024B9
:101B100003686403A34200DCD3E6434644461B68E3
:101B20005B422360534654461B685B422360634616
:101B3000064C2360C02464030460C2E60000260251
:101B4000FFFF3502600600205807002054070020E0
:101B500060070020640600205C0700206806002063
:101B6000DC0600206C0600200000DCFF0100FFFF07
:101B7000480700209A9999999999993F0000320253
:101B8000B0400320089B0A9C234300D0A1E6C02557
:101B90000B4B6D031B68AB4200DC9AE60368AB425B
:101BA00000DC96E6434644461B685B42236053468E
:101BB00054461B685B422360014B1D60056088E64C
:101BC00054070020F0B54546DE4657464E46E0B580
:101BD00003680400012587B0002B00D1A1E0544B1D
:101BE000544E9846544B2360002D02D03368002B8E
:101BF00007D1012007B0F0BCBB46B246A946A046BB
:101C0000F0BDD02212061268012A00D18CE0012218
:101C100041460A60013B3360484B00251A78EE2AA2
:101C2000E0D1474A1100944685CB85C105CB05C15B
:101C3000634644495B68444F0B606346986838606C
:101C4000424881460E20185E4B461860404B08689B
:101C50009A46634612229A5E53461A603B689B4638
:101C600015F0FAFFDE21890515F0BFFF16F016F812
:101C700004900591584615F0EFFFDE21890515F017
:101C8000B4FF16F00BF8049A059B009001913148BF
:101C900016F0A0FAFFF710FC2F4B18682F4B1B68AB
:101CA0009B4615F0D9FFDE21890515F09EFF15F042
:101CB000F5FF04900591584615F0CEFFDE21890509
:101CC00015F093FF15F0EAFF049A059B009001912F
:101CD000234816F07FFA234B1868234B1B689B465A
:101CE00015F0BAFFDE21890515F07FFF15F0D6FF4C
:101CF00053461B680490059103934B461B68584656
:101D0000029315F0A9FFDE21890515F06EFF15F08D
:101D1000C5FF049A059B00900191144816F05AFAE9
:101D200060E7054B036064E711490A6072E7C0464B
:101D3000B8C0002088C00020221C001030E1002024
:101D4000102100205C1700205817002018170020D1
:101D5000201700209490011008160020E81400209D
:101D6000C0900110500700204C070020DC900110AB
:101D7000BCC00020F0B597B016F038FAD02402208D
:101D800001F08EFF04232406A36201220021022019
:101D900001F0FEFE63685B0745D51021012015F0B8
:101DA000D5FF041E00D1A6E00EF012FF002800D0DF
:101DB0006BE0534A534954480EF072FE02A953484F
:101DC0000EF08CFC029B524AA360524B0193524B83
:101DD00023CB23C221001B780831137003A801AA6A
:101DE00000F04EFC002400F069FCFFF731FB4B4B88
:101DF0001C604B4B1C6016F01DFB4A4816F06EFB36
:101E0000D0231B061B68012B30D0474A1368092BCF
:101E100040DD0022454B1A60FEF774FA0EF018FF01
:101E2000002017B0F0BDFA20800002F061FE0EF035
:101E3000CFFE002824D10EF025FE3D4816F028F9EB
:101E40003C4B2F4A2F4930480EF06EFE002837D108
:101E50002F4A2E4B13CB13C203A92F480EF03EFC82
:101E6000354B03A9186804F033F9BBE7334A13680C
:101E7000092B2ADD0022324B1A60FEF7E3FACDE788
:101E8000304816F005F90120CBE72E4816F000F98E
:101E90000120C6E70C210D005D432B482B4F46194E
:101EA0002C505D1C7360B76015600A2DB1D069437A
:101EB00046187560264D0233B5600C501360A8E7D4
:101EC000244816F0E5F80120ABE70C210D005D4336
:101ED00021481E4F46192C505D1C7360B760156079
:101EE0000A2DC7D0694346187560194D0233B56095
:101EF0000C501360BEE7194816F0CAF8012090E7AD
:101F0000040040005891011064910110709101107B
:101F100088E80020FFFFFF007C9101108CC00020AA
:101F200088C0002085050010CCC00020C0C0002063
:101F30008C9101103075000080C00020D0C00020BE
:101F4000C4C0002040910110D4C00020C51B001067
:101F5000BD090010A49101104CC100202491011072
:101F6000F0B54746CE4680B56A4C13890700160087
:101F7000A544F22B09D8300004F0B0FB93239B005A
:101F80009D44C0BCB946B046F0BD89220023300054
:101F9000920009A904F0C6FCF228ECD924216A4673
:101FA000022352181370390004220DA815F00CFFFB
:101FB0009A20002345AD40000AE0922292009C182E
:101FC0006C44343CFF3C247802341B198342D2DA3F
:101FD000EA5CE918FF2ACED0352AEED18B78012BA6
:101FE00000D19FE0032BC6D19A20002340000AE0D5
:101FF000922292009A186A44343AFF3A12780232D6
:102000009B188342B7DAEA5CE918FF2AB3D0322A78
:10201000EED18A783B789A42ADD1CA787B789A42E1
:10202000A9D10A79BB789A42A5D14B791C00103C02
:10203000E4B29846072C9ED81D000F3DEDB2ED008E
:102040007D190622280010A916F086FF00280CD062
:1020500006222800304916F07FFF002800D08AE7CA
:102060000622280010A915F0AFFE02F047FE002955
:1020700000D17EE2FA220023920015F03DFA03001F
:10208000264A01349446E40063443C191B0CE38067
:1020900037226B469B18424624241A706946362222
:1020A000F0230919FF32CA526946313A091902333D
:1020B000FF3ACA546B463D3241219B186A46402084
:1020C00052186946091840461B7812780978362557
:1020D0000690684640190078013D05906846401911
:1020E0000078013D04906846401900786D460390E1
:1020F00021202D19285C6D46029020202C19205C8F
:1021000043240190281900780090054816F062F8E1
:1021100084E0C046B4FDFFFF04920110005C260578
:10212000B891011008239846B8440622404610A9E9
:1021300016F012FF041E5FD06F4D062229004046A4
:1021400016F00AFF041E00D0D4E0FB896B4A1B0482
:102150001A43914602F0D2FD002900D1EBE1FA22A8
:102160000023920015F0C8F94B46181A00D51AE260
:1021700010239846B8440622404610A916F0ECFEFB
:10218000002800D17AE2082C00D1BDE038000622F8
:1021900010A9183016F0E0FE002800D1F4E1380054
:1021A000062210A9203016F0D7FE002800D1F2E157
:1021B0003800062210A9283016F0CEFE002800D1E3
:1021C000EBE13800062210A9303016F0C5FE0028D9
:1021D00000D1E4E13800062210A9383016F0BCFE28
:1021E000002800D1DDE13800062210A9403016F0A9
:1021F000B3FE002800D196E137226B4624219B18BC
:102200006846362210341C70F0234018FF32C25248
:102210006846343A0233FF3A4118CA5424256946C5
:10222000F32336221A2004244919CA54FF300133FB
:10223000CC5404223900684415F0C6FD6946F923E0
:10224000012220204919CA54FF300133CC54042202
:10225000391D684415F0B8FD6946FF230322262086
:102260004919CA54FF300133CC5404223900684460
:1022700015F0AAFD0623694606222C204919FF33D2
:10228000CA54FF300133CC5404223900684415F09D
:102290009BFD0C23684633224019FF33C254184B70
:1022A00068464C93882341195B00B33ACA52A02276
:1022B0008921144B3620920049005D6804F0ACF887
:1022C000041E00D157E689224068520009A915F082
:1022D0007BFD01235B42B86C0893002D00D124E103
:1022E00021000095453308AA08F004FF200004F0FF
:1022F000F5F940E6082428E704920110FFFF0000EA
:10230000040001517426002006222900404616F0E0
:1023100023FE002800D1073CFB8AD0481B04184349
:10232000814602F0EBFC002900D109E1FA220023EA
:10233000920015F0E1F84B46181A00D542E1182337
:102340009846B8440622404610A916F005FE00281B
:1023500000D119E1082C00D021E7062229004046CF
:1023600016F0FAFD002800D1063CFB8BBB481B048D
:102370001843814602F0C2FC002900D1E5E0FA22B0
:102380000023920015F0B8F84B46181A00D528E142
:1023900020239846B8440622404610A916F0DCFDDA
:1023A000002800D1F7E0082C00D001E70622290020
:1023B000404616F0D1FD002800D1053CFB8CA74A11
:1023C0001B041A43914602F099FC002900D1C1E098
:1023D000FA220023920015F08FF84B46181A00D508
:1023E0000EE128239846B8440622404610A916F06C
:1023F000B3FD002800D1D0E0082C00D0E1E6062291
:102400002900404616F0A8FD002800D1043CFB8DB1
:10241000924A1B041A43914602F070FC002900D135
:102420009DE0FA220023920015F066F84B46181A38
:1024300000D5F4E030239846B8440622404610A95F
:1024400016F08AFD002800D1A9E0082C00D0C1E6D2
:1024500006222900404616F07FFD002800D1033CEB
:10246000FB8E7E4A1B041A43914602F047FC00296A
:102470007AD0FA220023920015F03EF84B46181A43
:1024800000D5DBE038239846B8440622404610A920
:1024900016F062FD002800D183E0082C00D0A2E6EF
:1024A00006222900404616F057FD002800D1023CC4
:1024B000FB8F6A481B041843814602F01FFC002969
:1024C0005DD0FA220023920015F016F84B46181A38
:1024D00000D5C5E040239846B8440622404610A9DE
:1024E00016F03AFD00281ED0082C00D084E6062203
:1024F0002900404616F030FD002800D1013C46235B
:10250000FB5A564D1B041D4302F0F8FB00293DD039
:10251000FA220023920014F0EFFF2D1A00D5A6E056
:10252000082C00D127E5072466E64423210008AAE9
:1025300008F004FEDAE6FA21890014F09FFF13E6A2
:10254000FA21890014F09AFFF5E6FA21890014F0C7
:1025500095FF19E7FA21890014F090FF3DE7FA2171
:10256000890014F08BFF61E7FA21890014F086FFDF
:1025700084E7FA21890014F081FF030080E5FA2145
:10258000890014F07BFFA1E7022435E6FA218900D7
:1025900014F074FFC1E703242EE604242CE605247E
:1025A0002AE6062428E606220021404615F006FC0D
:1025B0003800062210A9103016F0CEFC00285DD09D
:1025C0000024E3E506220021404615F0F7FB380021
:1025D000062210A9183016F0BFFC0028D4D0012420
:1025E000DDE506220021404615F0E8FB3800062212
:1025F00010A9203016F0B0FC0028CCD00224D7E57A
:1026000006220021404615F0D9FB3800062210A909
:10261000283016F0A1FC0028BFD00324D1E5062203
:102620000021404615F0CAFB3800062210A93030C0
:1026300016F092FC0028B2D00424CBE5062200213B
:10264000404615F0BBFB3800062210A9383016F0C2
:1026500083FC0028A5D00524C5E5C046FFFF000087
:1026600006220021404615F0A9FB0624BBE5062200
:102670000021404615F0A2FB0724BDE50124BBE57F
:102680000B6810B50360136804004360402200210A
:10269000083015F093FB08F0E5FDA064002808D091
:1026A0002200044908F0BAFD4322A06C024908F058
:1026B00003FC10BD611F001080B00110F0B5D646BC
:1026C0004F464646C0B579498AB0794812F0A4FB16
:1026D00078490600764812F09FFB77490500744858
:1026E00012F09AFB0023802299460593F8235202A8
:1026F0005B0202920393C02304001B03102202A971
:1027000006A89846049315F05FFB3100731C08314E
:102710000A03DB01134306A9102202A8079315F050
:1027200053FB664B01270593A0230621DB021020F3
:102730009A46029301F014FA0123102200215C480A
:10274000009712F039FC32000021594802AB12F018
:102750008BFC29006B1C0D310A03DB011343584A23
:10276000062113408022D205134307934346089362
:10277000544B112009935346069301F0F1F90123BC
:10278000112201214A48009712F016FC2A0001216B
:10279000474806AB12F068FC4B4680220593F823AD
:1027A00052025B02029203934346102202A906A83A
:1027B000049315F009FB2200A31C08321203DB016D
:1027C000134306A9102202A8079315F0FDFA3E4B09
:1027D00006211220059301F0C3F90621132001F010
:1027E000BFF90621142001F0BBF9032312220221B4
:1027F0002F48009712F0E0FB2200022102AB2C4888
:1028000012F032FC012012F07DFCA0260400012011
:1028100012F078FCF605B4462C4BE502C2022C49B6
:102820002B40134319432B4EA30163441E602A4ED1
:1028300080015E609626B6029E6019612749604459
:102840000A4027492A430A43264901608021436000
:1028500087600261164A490253680B42FCD180210D
:10286000214B89021361124A53680B42FCD1E023C9
:102870008021FF3353610E4AC90253680B42FCD1D9
:102880004023FF33936180239B011A43174BA02100
:10289000136001238622A340C905D2008B500AB0E1
:1028A000E0BCBA46B146A846F0BDC0460897011044
:1028B00000002050409701102497011000020004EE
:1028C000FFFFFF9F204600445202300CFD0700FF2F
:1028D00011000100A0E8002018002050FD871FFF14
:1028E00009801F00CC0700208F02000007070000AE
:1028F000F0B54546DE4657464E468446E0B585B0BF
:102900000D0003910EA90C786244A046019002923A
:10291000904249DA2A005D19E3005BB29C46AA4264
:1029200042DA0723F0269A46313399462248760048
:10293000019B19B2C943C9171940A02309B29B00D2
:10294000994200DB1D49E346039A09E04C465B10BF
:10295000C75C0132A7435C462743C754AA421CD038
:1029600013B2171CB34202DBE023FF331F1C3FB23C
:10297000FB430124DB171F40BB00DB19DB015B18A5
:102980001C42E3D15B10C45C013227005446A743CC
:1029900044462743C754AA42E2D1019B029A01331D
:1029A000DC4601939342C3D105B0F0BCBB46B246AE
:1029B000A946A046F0BDC046A0E800207F02000066
:1029C000F0B54E464546DE465746E0B595B09846CA
:1029D0001EAB1E781FAB1C78A023099606949B00A3
:1029E000984200DBB7E0A03B994200DBB3E0A4468D
:1029F000630063445B001B18002B00DCABE0E300CA
:102A00005B18002B00DCA6E093009A18F3005BB281
:102A100010934346DB005DB2A3B2079383B21193D8
:102A20000D9300230B938BB21293AD4BAA46D31890
:102A3000139307239C46313399460B9B052B00D1FA
:102A40004AE1139AD35C02936B4634229B5E069A4A
:102A50009B465A440192129A0A93130008339BB280
:102A600008930B9B05929B460392119A5A4413B20A
:102A7000DB43DB1713400C93029BDB0700D471E0B0
:102A8000069B012B00D1CDE06B460A990C229B5E80
:102A9000019A04938A4244DD9B46069D5D44AB4205
:102AA0003FDAF02600918F497600009B18B2C043B0
:102AB000C0171840A02300B29B00984200DB8A4850
:102AC000D346049A09E04C465B10CF5C0132A74321
:102AD0005C462743CF54AA421CD013B2171CB34202
:102AE00002DBE023FF331F1C3FB2FB430124DB1753
:102AF0001F40BB00DB19DB011B181C42E3D15B103C
:102B0000CC5C013227006446A74344462743CF5498
:102B1000AA42E2D1009B019A0133DA4600939A421D
:102B2000C3D10799029B8B465B080293059B013337
:102B30009AB2039B05925B449BB20393089B93421A
:102B40009AD10D9B0B9A5B4401329BB20B920D9371
:102B5000062A00D071E715B0F0BCBB46B246A946C4
:102B6000A046F0BD099B4345DBD0069B012B7DD0E1
:102B70006B460A990C229B5E019A04938A42D0DD2F
:102B80009B46069D5D44AB42CBDA53460E934346CB
:102B90000F93109BF0269846099B00919A46514945
:102BA0007600009B18B2C043C0171840A02300B2A3
:102BB0009B00984200DB4C48C346049A09E04C460F
:102BC0005B10CF5C0132A7435C462743CF54AA4237
:102BD0001CD013B2171CB34202DBE023FF331F1CCF
:102BE0003FB2FB430124DB171F40BB00DB19DB01B5
:102BF0001B181C42E3D15B10CC5C013227006446F9
:102C0000A74354462743CF54AA42E2D1009B019ADE
:102C10000133D84600939A42C3D10E9B9A460F9B2C
:102C200098467EE7F022059952000B1C09B29142AA
:102C300001DBE023FF331BB2DA43D21713409A00C3
:102C4000D3186A46A0213020125EDB0189008A4237
:102C500000DB254A9B18DA072CD5484621495B1032
:102C6000CA5C824350460243CA545AE7F02205998F
:102C700052000B1C09B2914201DBE023FF331BB26F
:102C8000DA43D21713409A00D3186A46A0213020A5
:102C9000125EDB0189008A4200DB134A9B18DA07C7
:102CA00011D548460F495B10CA5C82431098024315
:102CB000CA5436E760460B495B10CA5C8243404603
:102CC0000243CA542DE7604606495B10CA5C824342
:102CD00009980243CA5424E700230293B4E6C0468D
:102CE0000C920110A0E800207F020000024B188027
:102CF000024B19807047C046E2400320E4400320A5
:102D0000031C002800D10123014ADBB21380704765
:102D1000F6400320024B1870024B18707047C046F3
:102D2000094103200A410320F0B5CE46474680B54D
:102D30000278040083B0002A23D02A4B2A4E9946F9
:102D40002A4D0EE00D2A09D0092A1FD19F21274ABA
:102D5000890013888B4201D2043313802278002A21
:102D60000FD001340A2AEDD1214B1F4A1B8811884C
:102D7000DB005B18138000221C4B1A802278002A8B
:102D8000EFD103B0C0BCB946B046F0BD4B46002001
:102D9000315E0027E85F164F1B78B8463F780197F1
:102DA000144F3F780097FFF70BFE43461A88298897
:102DB0005300D3185B005B180F499BB209782B8036
:102DC0000029CBD0A020800084469100511A4900F0
:102DD00061448B42C2DD3388D200D2180023328096
:102DE0002B80BBE70A410320E4400320E24003209C
:102DF000F6400320094103200D41032010B507F0E0
:102E0000DDFE10BD0123F0B50B7283B0040007F0A6
:102E100009FF0500431C0DD11249134B1A685B686A
:102E2000009201938A60CB60236820005B69984719
:102E300003B0F0BD01F062FFFA2206000F0000238C
:102E400028000021920014F099FE36184F41002FFF
:102E500003DB04498E60CF60E6E70126034F76422C
:102E6000F7E7C046E007002080970110FFFFFF7FD3
:102E700070B5094D04002B78002B08D001230749B9
:102E800020000B722368DB699847012070BD02F0B7
:102E9000E5FA01232B70F1E7FE400320D007002064
:102EA00010B50400036804499B6998472368200013
:102EB0001B6A0249984710BDE0070020D007002098
:102EC000002070477047C04610B501F017FF002979
:102ED00005D0FA220023920014F00EFB10BDFA2157
:102EE000890014F0CBFAF9E7020083680832002B5E
:102EF00004D107E01A001B68002B03D09942F9D1D6
:102F0000002003E00023012011600B607047C046E1
:102F10008368002B08D0994202D107E0994207D07C
:102F20001A001B68002BF9D10020704702000832FC
:102F30000B6801201360F8E74368021D002B04D1E1
:102F400007E01A001B68002B03D09942F9D100203A
:102F500003E00023012011600B6070474368002BE1
:102F600008D0994202D107E0994206D01A001B68A6
:102F7000002BF9D100207047021D0B68012013605F
:102F8000F9E7C046F8B54746CE468368804680B527
:102F9000002B29D008234344994601F0AFFE434655
:102FA0009E6804000D00002E58D000234F469C461A
:102FB000B268F36820002900801A9941002902DBD9
:102FC00014001D00BC4637003668002EF0D1634661
:102FD000002B43D0196840460A681A604B6898472E
:102FE00043469B68002BD8D143465C68002C31D007
:102FF0000025237A002B29D02100636825724046E2
:1030000098472468002CF4D1174B18685968434638
:103010009E68002E04D112E020002900002E0ED060
:10302000330002009C68DD680B00121BAB41366860
:10303000002BF1DCF2D1002AEED1002EF0D1434674
:1030400018615961C0BCB946B046F8BD2468002C6F
:10305000CFD1D9E7044B18685968F0E743465C685C
:10306000002CC5D1D0E7C04680970110F0B5C64608
:10307000804600B501F042FE43469B6806000F0003
:10308000002B0AD09968DA6834003D00641A954133
:10309000002D10DA1B68002BF4D143465B68002B2F
:1030A00003D10AE01B68002B02D0187A0028F9D05F
:1030B00080BCB846F0BD0120FAE70020F8E7C04622
:1030C000024B18688007C00F7047C04600C006401A
:1030D000104A114B10B512184B419900900F08433C
:1030E000990F504059400D4A0D4B14F047FD030015
:1030F0004A01C00E1043CA0E58405140094B0A4ABB
:1031000014F03CFD03004A00C00F1043CA0F5840A2
:10311000514010BD157C4A7FB979379EB9E5E41C52
:103120006D4758BFBB49D094EB113113F0B504681B
:103130004568060023002A00C6468068F1680343FC
:103140000A4300B5134304D101F0D8FD03000B433B
:10315000FAD02A06230A6040270613432A0A3A4374
:10316000070CBC4669404B40984663460F041F431A
:10317000424003045A4043467B4032607360C20EB3
:103180004B011343C90E40010843B360A10FAB00CC
:103190000B43A200A4185D41EB01620E1A43E40147
:1031A0006B0E2343F0601E0017005B0FD100F00090
:1031B00019438019794180BCB846F0BDF0B5DE46B0
:1031C00057464E464546E0B5B84B8DB01B78002BB0
:1031D00000D1ECE008AB9846B54BB64C0393B64B28
:1031E000B64F049310220499404614F0EDFDB44B01
:1031F0001B78DBB2059301F081FDFFF769FF089BA7
:10320000584043465B680890594043465960AD4B6F
:103210009B69DB0400D5C0E012F0FAFDEFF30583F3
:103220009B46B9465F46A84B256866689A462800C3
:103230003100002F1AD001F095FDEFF3108272B625
:1032400053461B68002BFBD0BFF35F8F2368AB4254
:103250000FD0BFF35F8F00215346196082F31088AF
:103260002568666828003100002FE4D101F0DEFBFC
:10327000E3E76368B342ECD10125924B1600D869AD
:103280004F46054001F03AFD0A22002380185941BB
:10329000002900DA7DE03A687B6892185B41206083
:1032A000616028001C0013001043009301943860F3
:1032B0007C60BFF35F8F0024834A146086F310881C
:1032C0000199FFF705FF43469B68804A58404346F3
:1032D000DB689446594043469860D960039B7C4A1A
:1032E0001B78DB006344986890425ED00021FFF7B2
:1032F000EFFE089B584043465B68089059404346A0
:103300005960EFF3108572B66F4A1368002BFCD03A
:10331000BFF35F8F6A4B059A1B78934219D00499CB
:1033200040460B6840681A00089B5A400892424683
:103330004B68434053608B6800934346009A9B68F8
:103340005A40CB684146C96800934B4041468A6069
:10335000CB604046FFF7EAFE102206000C000498FE
:10336000414614F031FD564B554A1B780133DBB210
:103370001370BFF35F8F0022534B1A6085F31088E0
:10338000300021000DB0F0BCBB46B246A946A046B5
:10339000F0BD01204F4940427DE74F4BDA6BE023FF
:1033A0001340402B00D039E736E79C609EE74B4B3B
:1033B0009946186859684A4B9C464A4B9846830E72
:1033C0008F011F438601030C0D041D4332003B0097
:1033D000040412196B41121A8B41614601C98C46D3
:1033E0000021009001910098019980185941C4452D
:1033F000E5D14B4618605960FFF76AFE08AB984666
:10340000089B584043465B6808905940434606A8CD
:10341000596000F021F906980799FFF759FE4346D5
:103420009B6858404346DB68594043469860D960E2
:10343000244B9B69DB0436D5274BDA6BE023134022
:10344000402B30D0EFF305839A46402300240393AA
:1034500000231D4F00930194164C00239B465346B6
:103460002568666828003100002B19D001F07AFC2D
:10347000EFF3108972B63B68002BFCD0BFF35F8F6F
:103480002368AB4230D0BFF35F8F5B463B6089F36C
:10349000108853462568666828003100002BE5D166
:1034A00001F0C4FAE4E712F0B3FCCBE705410320D6
:1034B000F9400320C81200205011002060110020A4
:1034C000FA40032000000640300100D00000034015
:1034D000FFFFFF00FFFFFF7F00800040481100203A
:1034E000001C0420002004206368B342CBD1009A62
:1034F000019B1000190080185941484BDA690123DB
:10350000134003430093019101F0F8FB0A220023CA
:1035100080185941002949DB039B20606160012B21
:103520003AD1009801993E4F38607960BFF35F8FC0
:1035300000233C4D2B6089F31088FFF7C9FD089BE1
:10354000584043465B68089059404346596001F033
:10355000D5FBFFF7BDFD43469B6858404346DB68FB
:10356000594043469860D960EFF3108672B62B68D5
:10357000002BFCD0BFF35F8F2B4B1B78002B19D097
:103580002A4B03932A4B0493BFF35F8F0022254BF2
:103590001A6086F3108825E6BFF35F8F00233B6037
:1035A00089F31088039B013B039356E701202149CF
:1035B0004042B1E7204BDA681F2A23D05A691F2AFC
:1035C00022D0DA691F2A25D05B6A1F2B1FD012F088
:1035D0001FFCFF22FF231549DB000A70174A0391E5
:1035E0009446052263445A604046FFF79FFD104B06
:1035F000102218004146049314F0E6FB01230A4A06
:103600001370C1E700230393039BDAB2E3E71C3B8B
:103610000393F9E702230393F6E7C0460000064050
:1036200060110020300100D005410320F940032043
:1036300050110020FFFFFF7F0000034008000340FF
:1036400010B5FFF7BBFD10BD10B5024800F00CF837
:1036500010BDC046C4E6002010B50822014914F090
:10366000B3FB10BDC4E6002030B5002589B00400CE
:103670000922002101A8009514F0A0FB09220021D5
:1036800005A8049514F09AFB4B236A46684613700C
:1036900004A90D2215F048FC1521082220006944D8
:1036A00014F092FB09B030BDEFF3108072B6034AFC
:1036B0001368002BFCD0BFF35F8F70472C0100D044
:1036C000BFF35F8F0022024B1A6080F310887047AF
:1036D0002C0100D070B5EFF3108C72B60D4D2B6835
:1036E000002BFCD0BFF35F8F0724CB08C618C05C4B
:1036F00001230C40A3401C000440034207D10343B4
:103700003370BFF35F8F2C608CF3108870BD100096
:1037100012F066FB2C0100D0F8B54746CE4688462D
:1037200080B5EFF3108C72B6214D2C68002CFCD0C4
:10373000BFF35F8F9A422CD8D4080727055D06197E
:1037400001241740BC402C421FD007210127894685
:1037500009E0D408055D06194C4639001440A14023
:103760000C00294211D001329342F2D20120404292
:10377000BFF35F8F00220E4B1A608CF31088002875
:103780000FDBC0BCB946B046F8BD2C431000347006
:10379000EEE7BFF35F8F00232B608CF310880120CE
:1037A00040424346002BECD0089812F019FBC0466B
:1037B0002C0100D030B5EFF3108C72B60A4C2368A0
:1037C000002BFCD0BFF35F8F07230122CD081940E7
:1037D0008A40435D93434355BFF35F8F00232360CB
:1037E0008CF3108830BDC0462C0100D00021044B62
:1037F000044ABFF35F8F02C39342FAD17047C046B9
:10380000000100D0800100D0044A1078431CDBB2D4
:10381000172B00D9102313707047C046F8070020FB
:10382000142310B50100188804331B88984710BD75
:10383000162310B50100188802331B88984710BD65
:10384000F8B54746CE4680B50F1E19D014239946C9
:10385000043304000025012698464B461888434649
:1038600021681B88984701C4431E98410135404296
:103870000640AF42F1D13000C0BCB946B046F8BDF9
:103880000126F8E730B50C2083B001F0CBFDFFF73F
:1038900017FC00280ED0994B994A1A605A609A601A
:1038A000DA601A615A619A61DA611A62954A5A625B
:1038B00003B030BD944CA06701F0BCFD0122934BD6
:1038C0001A60636C012BFCD10322914B1A608E4A63
:1038D000936B012BFCD1013301218E4A8E4800935A
:1038E000043301F04FFD05238C4A009301218C48DD
:1038F00001F048FD8B4B5A68FF2A02D88022520003
:103900005A6080227D4C824B21691201854D1A60DC
:10391000002907D0606913F0B1FD431C5800C0189E
:103920000338FDD2E0217F4B02201A68114080222B
:1039300052012A4311601968484003210140116077
:1039400004219A681142FCD08022802192012A43EE
:1039500009011160802252005A60734B2361734B3E
:103960005968FF2900D85A600321684A6F4B1160DB
:1039700002399A681142FCD0E0201A681040802277
:1039800052011A4310601868484003210140022088
:10399000116066498A681042FCD08022920113436C
:1039A000802212011A608022614B52004A606361DA
:1039B000604B5968FF2900D85A6080225E4BE1694C
:1039C00012015C4D1A60002907D0606913F056FDA2
:1039D000431C5800C0180338FDD2E02255490B683B
:1039E0001A4080235B012B431A60802380229B01B5
:1039F0002B4312011A608022414B52004A60E3615E
:103A00004E4B5968FF2900D85A6080224C4B216ADE
:103A100012014A4D1A60002907D0606913F02EFD8B
:103A2000431C5800C0180338FDD2E02243490B68FC
:103A30001A4080235B012B431A60802380229B0164
:103A40002B4312011A60802380225B004B602C4BB9
:103A5000D20223623B4B5968914200D25A608022C5
:103A6000394B616A1201374D1A60002907D060692D
:103A700013F004FD431C5800C0180338FDD2E022A7
:103A800030490B681A4080235B012B431A60802366
:103A900080229B012B4312011A608023DB024B60C2
:103AA000184B6362294B5A68FF2A02D880225200C1
:103AB0005A608022264BA1691201244D1A60002908
:103AC00007D0606913F0DAFC431C5800C0180338B3
:103AD000FDD2E0221D490B681A4080235B012B4375
:103AE0001A60802380229B012B4312011A608023DD
:103AF0005B004B600E4BA361DAE6C0463017002036
:103B0000006CDC021BB70000008000403CB00040AD
:103B100030B00040002F685900800240008C86477A
:103B200000C0024030800040001BB7003C800040D5
:103B3000405973075480004054B0004060800040FA
:103B400060B000406C8000406CB000404880004095
:103B500048B00040014B8000C0587047301700202B
:103B6000094A830094464022634410B51C68C00093
:103B70006240C02414408022520113431C60034B56
:103B80009C466044416010BD04C0014000400140BB
:103B90000A4B80009C4604236044002901D00C237A
:103BA0000821002A00D10B00026853400C221A4061
:103BB00080235B01184302607047C04604C0014087
:103BC000084B80009C466044002905D080239B015F
:103BD0001843022303607047C0239B01184302234C
:103BE0000360F8E704C00140D0231B061B6830B512
:103BF0000500581E83410F485C428446072030234D
:103C0000284023408000EC08814020000A4D3C30D1
:103C100063448000A40041511B19002A04D0802273
:103C200092011343196030BDC02292011343196001
:103C3000F9E7C0460041014000400140D023F0B503
:103C4000C64604001B0698461B680C4F9B00F8589C
:103C50000D00160000B5044209D1044332002900CA
:103C6000FC500D2000F092F880BCB846F0BD12F078
:103C7000CFF843461B689B00F858EEE720E1002090
:103C800010B504000D2000F075F9D0231B061B6849
:103C900002499B005A58A2435A5010BD20E100200F
:103CA0000123D0228340120693629361094A830064
:103CB0009446402263441968C0004A40C021114024
:103CC0008022520113431960034B9C460523604434
:103CD0004360704704C0014000400140012383401D
:103CE000002904D0034A1360034A13607047034A53
:103CF0001360FBE780E200E000E100E080E100E02B
:103D000001228240034B1B6813405A1E9341D8B2D4
:103D10007047C04600E100E001238340014A136080
:103D20007047C04600E200E0024B10309B68800004
:103D3000C058704700ED00E070B50D00EFF310863D
:103D400072B60F4A1368002BFCD0BFF35F8F0D4B88
:103D500010309B6884001B590B4A934203D09D424C
:103D600001D012F055F8074B9B681D51BFF35F8FD0
:103D7000BFF35F8F0022024B1A6086F3108870BD7C
:103D8000240100D000ED00E0CD010010F0B5574651
:103D90004E46DE464546E0B585B006000291170066
:103DA000EFF3108B72B6674A1368002BFCD0BFF399
:103DB0005F8F0025644B5D579A46002D00DAA4E022
:103DC0006B00624C03935B199B009846A146C1446B
:103DD0004B4652469B79103613705D4BB2009B6880
:103DE000019299580B1B2F2B34D95A4B994200D072
:103DF000A4E0039B584A9C46584B6544AD0063536E
:103E0000434602336519E418554B0121043B1B1B43
:103E10001B055B0D13436B80524BEF71AB80FF238F
:103E2000AB71029BAB604B460B431900484B019AA8
:103E30009B689950BFF35F8FBFF35F8F0022414BA8
:103E40001A608BF3108805B0F0BCBB46B246A94699
:103E5000A046F0BD01200A008243D379BB422FD88F
:103E600045464E46130040491B1B5B415943090D13
:103E70003A4B63533A4B02356519043B5B1B1B05F8
:103E8000354D5B0D2B4373800426B446E044444417
:103E9000131F1B1B4C46A17102991B05A1604946CB
:103EA0005B0D2B43A380314BE77101431360BDE7EA
:103EB0005800C01880002018C679BE422BD90200D5
:103EC0000623D356002BF3DA101D8246284880467D
:103ED00004267642B446E14450464E46361A300532
:103EE000400D824656461C48957106439680039ABB
:103EF000944665441D4AAD00641922604246A37190
:103F0000029BA280E771A36090E711F081FF00257A
:103F100053465D5754E7101D8246908840050015B2
:103F200084464046D444664604302018301AE026C1
:103F30000005400D360230438046C9E711F068FFA6
:103F400057E7C046240100D001410320FC070020B0
:103F500000ED00E0CD01001000E0FFFF00A1FFFF39
:103F60002C08002001BDFFFFAAAA000001488047DD
:103F700001BD0000F0B5DE4657464E464546E0B569
:103F80000C0083B0EFF3108972B6584A1368002B07
:103F9000FCD0BFF35F8F564B9A68030010339F002D
:103FA000D559544A9046954232D0A54243D0524EFC
:103FB000AA1B2F2A2CD801228240924651464F4AF2
:103FC00012681140019151464D4A1160BFF35F8F55
:103FD000EFF305829346002A33D101232A009A4346
:103FE00093689C4208D177E04B005B189B00F31864
:103FF0009968A1422AD01A00062151560029F3DA05
:10400000019B002B19D052463E4B1A603B4B1A6065
:10401000374B9B68DD51BFF35F8FBFF35F8F00228B
:10402000324B1A6089F3108803B0F0BCBB46B2462D
:10403000A946A046F0BD1500EAE75246304B1A608B
:10404000E6E79342C9D011F0E3FEC6E706215956D0
:10405000002921DB4A005018800034188046A068EF
:104060009860E079D871062020569871002824DBEA
:10407000A488F01A6405241544440019E0240005BE
:10408000400D24022043988052181F4B9200B6180E
:104090001A781970B271B3E7594600290FD1FF3170
:1040A00091711A49918018490A789A71184A9B1B94
:1040B0005B415A43120D0A70A2E71648E3E7164A1D
:1040C0001649D21A083A5002400D0143998014490A
:1040D00052080A43DA8093E706215156130000295B
:1040E000B8DA5A46002AEAD14546DCE7240100D076
:1040F00000ED00E0CD010010FC07002000E100E031
:1041000080E100E080E200E00141032001BDFFFF0B
:10411000AAAA000001BD00003608002000F0FFFF41
:1041200000F8FFFF032310B50400074A1840944627
:10413000C0009C43FC3383406444226881409A431E
:1041400013000B43236010BD00E400E070B5EFF3F3
:10415000058101240443EFF3108C72B6214A1368E1
:10416000002BFCD0BFF35F8F1F4B05001F4AED1AD9
:104170006D416A43120D1E4D8900AE6852B27658E9
:10418000A6421CD00621595691421CD012215956E4
:10419000914222D01E215956914220D02A215956AF
:1041A0000324914210D0134B19781A708171BFF318
:1041B0005F8F00220B4B1A608CF3108870BDAB68C8
:1041C0000D4C5C50EFE700246100091989005B1871
:1041D000FF21997109499980E5E70124F4E7022458
:1041E000F2E7C046240100D0FC070020AAAA000084
:1041F00000ED00E001410320CD01001001BDFFFFF3
:10420000054B064A1360064A136053609360D360FF
:1042100013615361936170478080808000E400E007
:1042200004E400E01F2110B5091A0248FFF7C2FAA2
:1042300010BDC0460C41032000B5074B83B0010000
:104240000093002205230548FFF766FA002801DBEA
:104250001F23181A03B000BD649701100C410320FE
:1042600070B504000E001500FFF7CEFA0100200023
:1042700000F006F8A680E580BFF35F8F70BDC046F2
:10428000024B9C4661448900016070474000003445
:1042900010B50400FFF7B8FA01002000FFF7F0FFA7
:1042A000FF232371BFF35F8F10BDC04610B504001C
:1042B000FFF7AAFA01002000FFF7E2FFFF23A38027
:1042C000BFF35F8F10BDC04683680B4810B58446AE
:1042D00061446244090112019A18591854684B68E4
:1042E00001209C4201D802D00020C0B210BD12684B
:1042F0000B689A42F9D8F7E7FFFFFF0F0A4B1968DE
:10430000EFF3108072B60A68002AFCD0BFF35F8F0B
:104310001B68BFF35F8F00221A6080F3108840BFD4
:10432000002000217047C0462CE80020F8B5574611
:104330004E464546DE46E0B599460CAB1C780DABC3
:104340001B78060090469A460768002C11D1BC7B6A
:10435000002C42D065003B682D19033D59194B785C
:10436000BB73002B00D1FB7300238B704B700B7061
:1043700004E065003B682D19033D5919B2682A4BCA
:1043800094464246E3181B0163441A604A465A6049
:104390000A9A9A600B9ADA6000238B704B700B704C
:1043A0007B7B9B46002B2BD022005946B8687B684C
:1043B00098473A68002816D05B4658465B005B4435
:1043C0005519033BA870D118D35C002B00D06B703B
:1043D0005B460C707B73A34513D0F0BCBB46B24662
:1043E000A946A046F8BD5B465B005B44033BD3187F
:1043F0009C705119525D002A00D05A705B460B70B8
:104400007C7342464B46307D00F002FD051E06D00F
:104410005346002B03D12100306800F075FF0E9B3E
:10442000002BDAD01D70D8E7FFFFFF0FF0B5DE4696
:1044300057464E4645460023E0B58BB00893674B80
:104440008200D45800239B46099000F057FC626814
:1044500006000F00EFF3108572B61368002BFCD036
:10446000BFF35F8F23689C465B7B9946002B00D18E
:1044700069E0A2685A4B90464B441B01984443465E
:104480001A685B6810001900801BB941002900DC24
:1044900063E0099800F0BCFC00230022984600234A
:1044A0000692079300239A466368BFF35F8F5A46CC
:1044B0001A6085F310885346002B08D10028C4D118
:1044C0000BB0F0BCBB46B246A946A046F0BD089B67
:1044D000414618024B461843D047626806000F0059
:1044E000EFF3108572B61368002BFCD0BFF35F8F1B
:1044F000002F50DB33003B4302D02369002B61D1F6
:104500002368D97B002907D04A00521819688C46C5
:1045100049466244033A51709A7B002A01D14A46C7
:104520009A734A46DA734B46E168013BCA5C013232
:10453000CA545B4623616368BFF35F8F5A461A60B3
:1045400085F3108881E70023002298460023069215
:104550000793002300209A46A6E7002902D10028ED
:1045600000D096E70021604600F04CFE43461A68F2
:104570005B680692079343469B689A464346DB680E
:104580009846E3684B44013B1B7808931B020343A6
:104590002361002088E72369002BB1D0069A079B8E
:1045A000921BBB41002B15DB59460491012103915D
:1045B0004946029141460191514620000091FFF782
:1045C000B5FEB6E700F09AFB32003B0012184B41F3
:1045D000002BE9DA0122034B5242E5E7A8C0002094
:1045E000FFFFFF0FFFFFFF7F10B5144C6368002B28
:1045F00004D00A211248FFF743FE10BD2300114AE0
:104600001021206800F00EFD032000F053FB032072
:1046100000F068FC03200C4900F0B4FBFFF7F4F84D
:104620000A4B9C4603232375D0231B061B6860445A
:104630006375074B80006060DC60DAE744080020A7
:104640002CE80020C94200102D4400104000003426
:10465000A8C00020004870474408002070B505003D
:10466000182013F055FB164904000200280000F042
:10467000A9FC10212060280013F068FB0121A06034
:10468000280013F063FBE060012000F027FB050029
:1046900000F028FC28000B4900F074FBFFF7B4F889
:1046A000094B25759C46D0231B061B686044637527
:1046B000064BAD0080006060EC50200070BDC0462D
:1046C000C94200102D44001040000034A8C0002052
:1046D0000E4B10B50400984217D00021037D0C4A00
:1046E0009B009950006800F0BBFC0021207D00F089
:1046F00049FB207D00F0EAFAE06813F047FBA06870
:1047000013F044FB200013F041FB10BD44080020CF
:10471000A8C00020F0B54E464546DE465746E0B5F7
:1047200085B0019310AB1B780600039300239946D4
:10473000984600927268EFF3108B72B61368002BE4
:10474000FCD0BFF35F8F3568AC7B002C3DD0670099
:104750002B683F19033FDB195A78AA73002A00D14E
:10476000EA73B168474A8C4600980199A218120171
:104770006244106051600E9991600F99D160424679
:104780009A705A701A706B7B9A46002B67D0220081
:104790001900A8686B6898472A68002852D05346C9
:1047A00050465B005344D719033BB870D118D35C13
:1047B000002B00D07B7053460C706B7354454FD068
:1047C000F3681B19013B187800E000207368BFF301
:1047D0005F8F42461A608BF31088002C4FD04B46F7
:1047E000002B08D10002204305B0F0BCBB46B24606
:1047F000A946A046F0BD039B002B3ED00E9B002097
:104800000F999847030004000D000B4335D0002991
:104810000ADA009A019B121BAB4100920193002B14
:104820000ADB039B994685E700F068FA24184D419E
:1048300000940195002DF4DA0123134C5B420093A0
:104840000194EEE753465B005344033BD3189C703E
:10485000D119D25D002A00D05A7053460B706C7388
:10486000307D009A019B00F0D3FA81460028A7D042
:104870002100306800F048FDA2E70020B4E70120E5
:104880004042B1E7FFFFFF0FFFFFFF7FF0B5574644
:104890004546DE464E46E0B50400170083B0984614
:1048A0004268EFF3108A72B61368002BFCD0BFF396
:1048B0005F8F2668B57B002D3FD06B005B19033BF3
:1048C0009C463268019362445378AB46B373002B25
:1048D00000D1F373A168354B8C464146EB181B01A0
:1048E000634459600C991F6099600D99D960002349
:1048F000937053701370737B9946002B48D02A0035
:104900001900B068736898473268002832D04B4667
:1049100048465B004B44033BD1188C460199511823
:104920008870D35C002B00D04B7063461D704B46E3
:10493000002073734D4531D12BE0002300269B46A8
:1049400000206368BFF35F8F00221A608AF310882B
:10495000002D28D0002809D15B463002184303B04F
:10496000F0BCBB46B246A946A046F0BD207D00F093
:10497000D7FAF1E74B465B004B44033B0198D31851
:104980009D701118125C002A00D05A704B460B70B3
:1049900075733A004346207D00F03AFAE3685B19EC
:1049A000013B1E78CDE701204042D8E7FFFFFF0F13
:1049B00070B50400002933D04268EFF3108572B659
:1049C0001368002BFCD0BFF35F8F2068CEB2437B0F
:1049D000B34216D0FF230B405A00D3180268944606
:1049E0006344033B9B78002B0BD12269914219D081
:1049F00000206368BFF35F8F00221A6085F3108880
:104A000070BDFF230A0A0B40E168D2B28C466344B2
:104A1000013B19789142EBD1310000F075FCE8E7D9
:104A20000020EDE72361E3E7407D7047F0B5040027
:104A30000D0006267642F717C64636196F4100B5B7
:104A400084B08F4214D811D000F058F932003B00E6
:104A5000121A8B41002B15DC002B3ED020002900C0
:104A600000F080F904B080BCB846F0BD8642EBD9B6
:104A70000026002700F042F932003B00121A8B4159
:104A8000002BE9DD002302930193154B32000093C4
:104A900014483B00FFF73EFE0028DFDB002398466A
:104AA000BC46114A114F7B6A9C4504D8B96A8E42B4
:104AB000D4D99C45D2D11168EFF3108072B60B683F
:104AC000002BFCD0BFF35F8F1368BFF35F8F4146AD
:104AD000196080F3108820BFE5E7002ABED0D1E737
:104AE000FD420010440800202CE800200040054052
:104AF00070B5060000F002F9FA2204000D00002350
:104B000030000021920013F039F8001969410029A2
:104B100002DBFFF78BFF70BD012001494042F8E73F
:104B2000FFFFFF7FF0B5EFF30583CE46474680B524
:104B300005000C0085B0002B12D02C4A0020536ACF
:104B40009C4203D8926A0130AA4204D305B0C0BC8B
:104B5000B946B046F0BDE01A421E9041C0B2F5E73A
:104B6000234E02930193234B0200009330000B006D
:104B7000FFF7D0FD031EE0DD20BF7168EFF3108763
:104B800072B60A68002AFCD0BFF35F8FDAB294468F
:104B90003068427B62451DD0FF221A405100894691
:104BA000016891448846494641440339897800297F
:104BB00013D0F1681B0A88464244013A1278DBB2EE
:104BC0009A420FD07368BFF35F8F00221A6087F399
:104BD0001088B2E7FF221A40EBE732699342F1D125
:104BE0003161EFE7614600F08FFBEBE700400540E5
:104BF00044080020FD420010F0B5EFF30582D646D0
:104C00004F4646461000C0B51038EFF3108872B614
:104C1000214C2368002BFCD0BFF35F8F01231900C8
:104C200081401E4D1F006963AA461D4D29601D4D20
:104C30002E78AC463500C5402F402B4209D1BFF33A
:104C40005F8F276088F31088E0BCBA46B146A8465B
:104C5000F0BD5346144D5F6A83005D59AF420ED3D9
:104C6000124A8E439B5862461670BFF35F8F002234
:104C7000226088F31088002BE6D09847E4E70C4BBD
:104C800092009C46624413681360BFF35F8F002359
:104C9000236088F31088D7E7280100D00040054042
:104CA0003C7005400B41032034E80020EC14002048
:104CB000D03F054010B50100024A0348FEF70AFD47
:104CC00010BDC04688970110FB40032010B50100BD
:104CD0000148FEF76FFD10BDFB40032000B5054BFA
:104CE00083B001000093002203230348FEF714FD64
:104CF00003B000BDAC970110FB400320034B596A81
:104D00000A00986A596A8A42FAD170470040054001
:104D100070B504000D00124A536A1900966A536A6E
:104D20008B42FAD13000190024184D41AB4211D802
:104D30000ED02B000A494A6A9A42FCD307D1084A8E
:104D400002E0516A994202D1916AA142F9D370BD41
:104D5000A642EED9012301246442E5175B42E9E74C
:104D600000400540064A536A9942FCD807D1044BDB
:104D700002E05A6A914202D19A6A8242F9D370479C
:104D80000040054070B504000D00EFF3108672B6C8
:104D90001A4A1368002BFCD0BFF35F8F002D1BD085
:104DA0002000FEF7C1FF164981420AD02000FEF71D
:104DB000C3FF01212000FEF791FF0123A340114A08
:104DC0001360114BA400E550BFF35F8F00220B4B23
:104DD0001A6086F3108870BD0B4BA200D5500122DB
:104DE000A2400A4920000B7893430B700449FFF757
:104DF000C1F800212000FEF771FFE5E7280100D08F
:104E0000F94B001038600540EC1400200B410320E2
:104E1000F0B54F46D6464646C0B507002C4C616AF1
:104E20000D00A66A616AA942FAD18B4208D805D062
:104E30000120E0BCBA46B146A846F0BDB242F7D95F
:104E4000EFF3108A72B6234801680029FCD0BFF343
:104E50005F8F0125BD4020491D4C88460978894651
:104E60002943C9B28C46414660460870391D1B482B
:104E7000890065630A51B9000B50216A002029425C
:104E800019D0616A0800A66A616A8142FAD18B4230
:104E900019D801D1B24216D8CC4516D00C4B1F20E0
:104EA0001D625D6301230740BB400D4A1E3813603D
:104EB00043464A461A70BFF35F8F0022054B1A60C3
:104EC0008AF31088B5E70020F5E70120F3E7C04634
:104ED00000400540280100D00B41032034E80020A9
:104EE00080E200E0EFF3108C72B60A490B68002BE9
:104EF000FCD0BFF35F8F01238340074A074813624A
:104F000002789A430270BFF35F8F00230B608CF32B
:104F100010887047280100D0004005400B41032055
:104F2000EFF3108C72B60A490B68002BFCD0BFF36C
:104F30005F8F01238340074802781A430270BFF352
:104F40005F8F00220A608CF31088034A1360704759
:104F5000280100D00B4103203C60054070B50500DE
:104F600014001600002915D00C00002A12D0806809
:104F70006B689847296800280ED073009B1962005F
:104F8000033B1219CB18033A9C7088188A5C002ADC
:104F900015D10670200070BD63001B197200033B21
:104FA0009219CB18033A9E7088188A5C002A02D1A5
:104FB00004703400EEE75A7004703400EAE75A7067
:104FC0000670E7E7F0B5C6460600884600B5102132
:104FD0000120170012F0BAFE03210500300012F084
:104FE000B5FE43466B600023F4B26B730133286057
:104FF0002C73AF60AB73EC73012C06D9421C0133E8
:10500000DBB2137003329C42F9D1FF231E407300C0
:105010009E190023801903384370280080BCB846CD
:10502000F0BDC04630B583600023CCB2437301337A
:10503000047342608373C4730D000068012C06D9A9
:10504000421C0133DBB2137003329C42F9D1FF21C1
:1050500029404B005918002340180338437030BDD5
:1050600010B50400006812F091FE200012F08EFED0
:1050700010BDC046F8B5CE46474606000C0080B5C8
:10508000002907D04D0003686D18033D5A19577861
:10509000002F04D12000C0BCB946B046F8BD79004D
:1050A000C919033988464344597889460021597003
:1050B000517073683A00210080689847336800286F
:1050C00014D042469A18947059195B5D002B00D099
:1050D00053700F70270049463000FFF7CBFF3900AF
:1050E00002003000FFF73AFF0400D3E74246414692
:1050F0005D19AF709A185B5C002B00D06B70147058
:10510000E9E7C046F0B557464546DE464E46E0B5AF
:105110000D006B0001685B19DF1E0400C85D83B0E1
:105120000192CA19002850D043001B18033BCB182A
:105130005E78B446002E1AD1019E002E42D0E67B46
:10514000002E04D073009B19CB18033B5D70A37B2A
:10515000002B00D1A573E57300282FD100235370D5
:1051600003B0F0BCBB46B246A946A046F0BD7200F3
:105170006244033A89184A78904600224A70914660
:105180005A70010032002000FFF7E8FE43468246D5
:10519000002B07D05B0021684344033BCB185A78AF
:1051A000002A16D1424651462000FFF7D7FE21685B
:1051B000019BCA19002BC2D10028CFD043001B1875
:1051C000033BCB1800219970C8E7019B002BB6D197
:1051D000C4E75000801803380918487883464846C9
:1051E0004870587041462000FFF7B8FE5946804687
:1051F0002000FFF73FFF414602002000FFF7AEFE10
:105200008046CFE7F0B557464546DE464E46E0B508
:1052100083B00191457B04006B0000685B19DF1EC1
:10522000C15DC219002952D04B005B18033BC31863
:105230005E78B446002E1CD1019E002E44D0E67B41
:10524000002E04D073009B19C318033B5D70A37B31
:10525000002B00D1A573E573002931D1002328006C
:105260005370617303B0F0BCBB46B246A946A0467A
:10527000F0BD72006244033A8018427890460022E2
:10528000427091465A7020003200FFF767FE434695
:105290008246002B07D05B0021684344033BCB18B8
:1052A0005A78002A17D1424651462000FFF756FE91
:1052B000019B01002068C219002BC0D10029CDD06C
:1052C0004B005B18033BC31800209870C6E7019B96
:1052D000002BB4D1C2E75000801803380918487871
:1052E000834648464870587041462000FFF736FE16
:1052F000594680462000FFF7BDFE414602002000CF
:10530000FFF72CFE8046CEE770B5040000292CD0B4
:10531000437B8B422ED0056848004018033828187C
:105320008278002A21D053009B18033BEA5CEE18D8
:105330008A4202D11BE0002A08D053009B18033B8D
:10534000EB185A788A42F6D142785A70002301222B
:10535000837043702000FFF7D5FE617B02002000C0
:10536000FFF7FCFD6073012000E0002070BD437872
:105370003370EBE701221900FFF7C4FE60730120D0
:10538000F4E7C046F8B5040021481D0017000E00E0
:1053900012F074F80100380012F070F8069B29042E
:1053A0001B0319432368002B20DB1A4B1A4DE2180C
:1053B00053425A4180235B019C461203174B6244BF
:1053C0001A60174B1A601700AB689F43FBD1C022CD
:1053D000231D92011A4321232660A06013602368D5
:1053E000002BFCDA0823E1601360F8BD3F2322683C
:1053F0001340B342D9D1A3681B051B0D8342D4D1FE
:10540000EE22E368D20213408B42CED1EDE7C046D4
:10541000001BB7000040FDBF00C0004000E000409E
:1054200000F000408023024A9B000343D362704790
:1054300000800540AA23064A1B0113602F2305495B
:10544000D360054B19605368002BFCDA7047C046E7
:105450000040024000B0FA000060024010B501F0C8
:10546000F3FB00F01FFB00F0E3FC00F08DFD05F006
:10547000EDFB01F079FC00F057F905F057FB10BD8A
:1054800040BA80B27047C04600BA7047F8B5474688
:10549000CE4680B50701040038180001103081465F
:1054A000404D414E2B688846B144002B02D02A7AE9
:1054B000A24258D0EB68002B02D02A7DA2424BD0EA
:1054C000AB69002B03D02022AA5CA2423DD06B6ABC
:1054D000002B03D02C22AA5CA2422FD03B191B0127
:1054E000F318DB7B002C04D0B27A022A41D0012CC5
:1054F00006D08D225200B25C022A43D0022C05D085
:105500002A4AB25C022A43D0032C03D0284AB25C58
:10551000022A42D0032B0DD8264D9B00585905F086
:1055200083FE00223C1924013619F37B9B005A515B
:105530000423F373C0BCB946B046F8BD41464846A3
:10554000AA6A984700236B62C8E741464846EA6961
:1055500098470023AB61BAE7414648462A69984715
:105560000023EB60ACE748466A68984700232B604D
:10557000A0E7F27B9A42BAD104233C1924013619E0
:10558000F373D7E72022FF32B25C9A42B6D1F3E739
:10559000094AB25C9A42B7D1EEE7084AB25C9A4235
:1055A000B8D1E9E7AC210020E42100202A02000064
:1055B0003A0300009C2100202F0200003F0300005E
:1055C000F0B5DE464E46574645468346E0B50301F4
:1055D00087B04F4A01935B441B01D618F27A012A27
:1055E00000D992E04B4992008C58002C00D17FE00A
:1055F00010331D00464B9C466544280013F0ECFA1E
:10560000A022123081B29200362000F005FF8146C0
:10561000002866D003AC0C220021200012F0CEFB43
:105620003089FFF72DFF01232080A3700C22FF3368
:1056300021004846A38001F0ADF9374B0C269A466D
:105640004F46013D6B1C98466B78002445462E2B37
:1056500006D156E06B7801340135E4B22E2B01D02F
:10566000002BF7D14346EB1A9BB299462300F3185F
:10567000534542DC22003100380001F03FFA731C30
:105680004A469BB234194146380001F0BFF9A3B233
:105690002A785E1CB6B2002AD4D11C003100380032
:1056A00001F02CFA1D4B02340422029302A9A3B28A
:1056B000380001F0ABF9164A019B944615495B444A
:1056C0001B0163448C46DA7ADB7B15499B00920010
:1056D000585862443523390005F030FD380000F099
:1056E000FDFF07B0F0BCBB46B246A946A046F0BDE0
:1056F0000021FFF7CBFEB472F3E7380000F0EEFFB5
:10570000EFE7002200239146B1E7064810F068FB5E
:10571000E4210020DC210020FEFF00000001000148
:105720009C210020C09701107047C04682B001281C
:1057300001D902B070478000002903D00A68044BE9
:10574000C250F6E7034A024B12680192C250F0E7DA
:10575000DC21002080B00110F0B546464F46D64609
:10576000464BC0B5464E8D273400002598467F0035
:10577000A37A022B35D02CD8002B1FD0414B994651
:10578000414B9A46FDF75CFFB37A80B2022B40D0C2
:10579000F35D022B43D04B46F35C022B48D05346BB
:1057A000F35C022B4DD002230122A372002320813F
:1057B000E372280022736373FFF702FF013511348F
:1057C000EDB2FF34042DD3D1E0BCBA46B146A846B1
:1057D000F0BD032B4ED12368002B13D10023A372FD
:1057E000ECE7237B013BDBB22373002BE6D1637B29
:1057F0000133DBB26373042B29D023732800FFF736
:10580000DFFEDBE7013B2360002BD7D10023A3722F
:10581000D4E733898342B5D0F35D022BBBD1173374
:10582000FF33F35A8342ADD04B46F35C022BB6D123
:105830008A239B00F35A8342A4D05346F35C022B85
:10584000B1D1CE239B00F35A8342ACD19AE7E37ADD
:10585000002B08D142465268002A04D0012263730B
:10586000E2722273CAE700212800FFF70FFE00232F
:10587000A372A3E7054810F0B3FAC046DC2100206C
:10588000E42100202A0200003A030000F4970110EE
:10589000F0B583B06B469C1D0023238001331E00AE
:1058A0000640184205D0002903DD037801396370F2
:1058B0000130032213000340104205D000230129C8
:1058C00038DD03880239023007294BDD0839072209
:1058D0000F009743020005000832BF182A689A1883
:1058E0009A429B415B42D2186B680835D3189342A9
:1058F000924152429B18AF42F0D1CA08551CD200C7
:10590000ED00891A1A044019120C1B0C9B1801296E
:1059100010DD02889B188A1E012A05DD45885B1967
:10592000052901DD81885B1851084D1C6D00490077
:105930004019511A012901D1027822702288D21807
:10594000130C1204120C9B18180C1B041B0CC0180F
:10595000002E04D0030600041B0C000E184380B276
:1059600003B0F0BD1A00D0E7F0B54F46D646464624
:10597000C0B591461A68089B8A46196804000B0452
:105980001B0C090C5B181104090C5918130C5B183B
:10599000180C1B041B0CC318180C1B041F0CC71974
:1059A000002C21D0FF2300260125984661896068DC
:1059B000FFF76EFFC019030C0004070CDF196389A1
:1059C0001D4207D042463B06380A1B0C10400343D9
:1059D0001F006E402468002CE8D1002E04D03B0646
:1059E0003F041B0C3F0E1F43534698B2FFF748FD80
:1059F00004004846FFF744FD2018C019030C0004BA
:105A0000000C1818030C0004000C1818C04380B2D6
:105A1000E0BCBA46B146A846F0BDC04610B582B05B
:105A2000049C0094FFF7A0FF02B010BD10B5FFF773
:105A30002FFFC04380B210BDF0B5C646040000B5CC
:105A400000282AD0FF2300260027012598466189D7
:105A50006068FFF71DFFC019030C0004070CDF1975
:105A600063891D4207D042463B06380A1B0C104092
:105A700003431F006E402468002CE8D1002E09D09B
:105A80003B0638041B0C000E1843C04380B280BC98
:105A9000B846F0BDF84380B2F9E70148F7E7C046E1
:105AA000FFFF000003220A4B002103339343094AFE
:105AB00009481360FA2252011971991801600120F6
:105AC0001A60087105499950054A13607047C0462D
:105AD000CCC10020C4C10020C8C10020401F401F0D
